{
  "_format": "hh-sol-artifact-1",
  "contractName": "FileSaver",
  "sourceName": "contracts/filesaver/FileSaver.sol",
  "abi": [
    {
      "inputs": [
        {
          "internalType": "address payable",
          "name": "_sFIL_Address",
          "type": "address"
        }
      ],
      "stateMutability": "nonpayable",
      "type": "constructor"
    },
    {
      "inputs": [
        {
          "internalType": "bytes32",
          "name": "",
          "type": "bytes32"
        }
      ],
      "name": "CID_to_PerpertualDeal",
      "outputs": [
        {
          "internalType": "string",
          "name": "name",
          "type": "string"
        },
        {
          "internalType": "uint256",
          "name": "replicas",
          "type": "uint256"
        },
        {
          "internalType": "uint256",
          "name": "activeReplicas",
          "type": "uint256"
        },
        {
          "internalType": "uint256",
          "name": "createdAt",
          "type": "uint256"
        },
        {
          "internalType": "uint256",
          "name": "duration",
          "type": "uint256"
        },
        {
          "internalType": "uint256",
          "name": "amount",
          "type": "uint256"
        }
      ],
      "stateMutability": "view",
      "type": "function"
    },
    {
      "inputs": [
        {
          "internalType": "bytes32",
          "name": "",
          "type": "bytes32"
        },
        {
          "internalType": "address",
          "name": "",
          "type": "address"
        }
      ],
      "name": "CID_to_Provider_to_HasReserved",
      "outputs": [
        {
          "internalType": "bool",
          "name": "",
          "type": "bool"
        }
      ],
      "stateMutability": "view",
      "type": "function"
    },
    {
      "inputs": [
        {
          "internalType": "bytes32",
          "name": "",
          "type": "bytes32"
        },
        {
          "internalType": "address",
          "name": "",
          "type": "address"
        }
      ],
      "name": "CID_to_Provider_to_NumberOfClaims",
      "outputs": [
        {
          "internalType": "uint256",
          "name": "",
          "type": "uint256"
        }
      ],
      "stateMutability": "view",
      "type": "function"
    },
    {
      "inputs": [
        {
          "internalType": "uint256",
          "name": "",
          "type": "uint256"
        }
      ],
      "name": "DealId_to_HasBeenUsed",
      "outputs": [
        {
          "internalType": "bool",
          "name": "",
          "type": "bool"
        }
      ],
      "stateMutability": "view",
      "type": "function"
    },
    {
      "inputs": [
        {
          "internalType": "bytes32",
          "name": "_cid",
          "type": "bytes32"
        },
        {
          "internalType": "uint256",
          "name": "_dealId",
          "type": "uint256"
        }
      ],
      "name": "claim",
      "outputs": [],
      "stateMutability": "nonpayable",
      "type": "function"
    },
    {
      "inputs": [
        {
          "internalType": "bytes32",
          "name": "_cid",
          "type": "bytes32"
        }
      ],
      "name": "donate",
      "outputs": [],
      "stateMutability": "payable",
      "type": "function"
    },
    {
      "inputs": [
        {
          "internalType": "bytes32",
          "name": "_cid",
          "type": "bytes32"
        },
        {
          "components": [
            {
              "internalType": "string",
              "name": "name",
              "type": "string"
            },
            {
              "internalType": "uint256",
              "name": "replicas",
              "type": "uint256"
            },
            {
              "internalType": "uint256",
              "name": "activeReplicas",
              "type": "uint256"
            },
            {
              "internalType": "uint256",
              "name": "createdAt",
              "type": "uint256"
            },
            {
              "internalType": "uint256",
              "name": "duration",
              "type": "uint256"
            },
            {
              "internalType": "uint256",
              "name": "amount",
              "type": "uint256"
            }
          ],
          "internalType": "struct FileSaver.PerpetualDeal",
          "name": "_pd",
          "type": "tuple"
        }
      ],
      "name": "proposePerpetualDeal",
      "outputs": [],
      "stateMutability": "payable",
      "type": "function"
    },
    {
      "inputs": [
        {
          "internalType": "bytes32",
          "name": "_cid",
          "type": "bytes32"
        }
      ],
      "name": "reserve",
      "outputs": [],
      "stateMutability": "payable",
      "type": "function"
    },
    {
      "inputs": [
        {
          "internalType": "address",
          "name": "",
          "type": "address"
        },
        {
          "internalType": "uint256",
          "name": "",
          "type": "uint256"
        }
      ],
      "name": "user_to_CID",
      "outputs": [
        {
          "internalType": "bytes32",
          "name": "",
          "type": "bytes32"
        }
      ],
      "stateMutability": "view",
      "type": "function"
    },
    {
      "inputs": [
        {
          "internalType": "address",
          "name": "",
          "type": "address"
        }
      ],
      "name": "user_to_CID_Counter",
      "outputs": [
        {
          "internalType": "uint256",
          "name": "",
          "type": "uint256"
        }
      ],
      "stateMutability": "view",
      "type": "function"
    }
  ],
  "bytecode": "0x60806040523480156200001157600080fd5b5060405162001a5138038062001a518339818101604052810190620000379190620000e8565b806000806101000a81548173ffffffffffffffffffffffffffffffffffffffff021916908373ffffffffffffffffffffffffffffffffffffffff160217905550506200011a565b600080fd5b600073ffffffffffffffffffffffffffffffffffffffff82169050919050565b6000620000b08262000083565b9050919050565b620000c281620000a3565b8114620000ce57600080fd5b50565b600081519050620000e281620000b7565b92915050565b6000602082840312156200010157620001006200007e565b5b60006200011184828501620000d1565b91505092915050565b611927806200012a6000396000f3fe6080604052600436106100915760003560e01c8063d05cc50511610059578063d05cc50514610150578063e6d0c4c414610192578063f27a96d7146101cf578063f3cd440b1461020c578063f9e7e7fe1461024957610091565b8063432ced041461009657806344b4420c146100b257806363f44968146100ce578063bec97070146100f7578063c37067fa14610134575b600080fd5b6100b060048036038101906100ab9190610c79565b610286565b005b6100cc60048036038101906100c79190610ee8565b61038e565b005b3480156100da57600080fd5b506100f560048036038101906100f09190610f44565b61058b565b005b34801561010357600080fd5b5061011e60048036038101906101199190610fe2565b610875565b60405161012b9190611031565b60405180910390f35b61014e60048036038101906101499190610c79565b6108a6565b005b34801561015c57600080fd5b5061017760048036038101906101729190610c79565b610a1e565b604051610189969594939291906110da565b60405180910390f35b34801561019e57600080fd5b506101b960048036038101906101b49190611142565b610ae2565b6040516101c6919061119d565b60405180910390f35b3480156101db57600080fd5b506101f660048036038101906101f191906111b8565b610b11565b604051610203919061119d565b60405180910390f35b34801561021857600080fd5b50610233600480360381019061022e91906111e5565b610b31565b6040516102409190611212565b60405180910390f35b34801561025557600080fd5b50610270600480360381019061026b9190611142565b610b49565b60405161027d9190611212565b60405180910390f35b60036000828152602001908152602001600020600101546003600083815260200190815260200160002060020154106102f4576040517f08c379a00000000000000000000000000000000000000000000000000000000081526004016102eb90611279565b60405180910390fd5b60016004600083815260200190815260200160002060003373ffffffffffffffffffffffffffffffffffffffff1673ffffffffffffffffffffffffffffffffffffffff16815260200190815260200160002060006101000a81548160ff021916908315150217905550600160036000838152602001908152602001600020600201600082825461038491906112c8565b9250508190555050565b806003600084815260200190815260200160002060008201518160000190816103b79190611508565b506020820151816001015560408201518160020155606082015181600301556080820151816004015560a0820151816005015590505060006003600084815260200190815260200160002060020181905550436003600084815260200190815260200160002060030181905550346003600084815260200190815260200160002060050181905550600260003373ffffffffffffffffffffffffffffffffffffffff1673ffffffffffffffffffffffffffffffffffffffff16815260200190815260200160002082908060018154018082558091505060019003906000526020600020016000909190919091505560018060003373ffffffffffffffffffffffffffffffffffffffff1673ffffffffffffffffffffffffffffffffffffffff16815260200190815260200160002060008282546104f491906112c8565b9250508190555060008054906101000a900473ffffffffffffffffffffffffffffffffffffffff1673ffffffffffffffffffffffffffffffffffffffff16634ac5a3f534306040518363ffffffff1660e01b815260040161055591906115fb565b6000604051808303818588803b15801561056e57600080fd5b505af1158015610582573d6000803e3d6000fd5b50505050505050565b600115156004600084815260200190815260200160002060003373ffffffffffffffffffffffffffffffffffffffff1673ffffffffffffffffffffffffffffffffffffffff16815260200190815260200160002060009054906101000a900460ff1615151461062f576040517f08c379a000000000000000000000000000000000000000000000000000000000815260040161062690611688565b60405180910390fd5b600015156006600083815260200190815260200160002060009054906101000a900460ff16151514610696576040517f08c379a000000000000000000000000000000000000000000000000000000000815260040161068d9061171a565b60405180910390fd5b6005600083815260200190815260200160002060003373ffffffffffffffffffffffffffffffffffffffff1673ffffffffffffffffffffffffffffffffffffffff168152602001908152602001600020546106f083610b6e565b11610730576040517f08c379a0000000000000000000000000000000000000000000000000000000008152600401610727906117ac565b60405180910390fd5b60003390506000610515905060008054906101000a900473ffffffffffffffffffffffffffffffffffffffff1673ffffffffffffffffffffffffffffffffffffffff1663a9059cbb83836040518363ffffffff1660e01b81526004016107979291906117db565b6020604051808303816000875af11580156107b6573d6000803e3d6000fd5b505050506040513d601f19601f820116820180604052508101906107da9190611830565b5060016005600086815260200190815260200160002060008473ffffffffffffffffffffffffffffffffffffffff1673ffffffffffffffffffffffffffffffffffffffff168152602001908152602001600020600082825461083c91906112c8565b9250508190555060016006600085815260200190815260200160002060006101000a81548160ff02191690831515021790555050505050565b6002602052816000526040600020818154811061089157600080fd5b90600052602060002001600091509150505481565b346003600083815260200190815260200160002060050160008282546108cc91906112c8565b92505081905550600260003373ffffffffffffffffffffffffffffffffffffffff1673ffffffffffffffffffffffffffffffffffffffff16815260200190815260200160002081908060018154018082558091505060019003906000526020600020016000909190919091505560018060003373ffffffffffffffffffffffffffffffffffffffff1673ffffffffffffffffffffffffffffffffffffffff168152602001908152602001600020600082825461098891906112c8565b9250508190555060008054906101000a900473ffffffffffffffffffffffffffffffffffffffff1673ffffffffffffffffffffffffffffffffffffffff16634ac5a3f534306040518363ffffffff1660e01b81526004016109e991906115fb565b6000604051808303818588803b158015610a0257600080fd5b505af1158015610a16573d6000803e3d6000fd5b505050505050565b6003602052806000526040600020600091509050806000018054610a419061132b565b80601f0160208091040260200160405190810160405280929190818152602001828054610a6d9061132b565b8015610aba5780601f10610a8f57610100808354040283529160200191610aba565b820191906000526020600020905b815481529060010190602001808311610a9d57829003601f168201915b5050505050908060010154908060020154908060030154908060040154908060050154905086565b60046020528160005260406000206020528060005260406000206000915091509054906101000a900460ff1681565b60066020528060005260406000206000915054906101000a900460ff1681565b60016020528060005260406000206000915090505481565b6005602052816000526040600020602052806000526040600020600091509150505481565b6000610b7982610b93565b610b8283610c03565b610b8c919061185d565b9050919050565b60008060036000848152602001908152602001600020600401546003600085815260200190815260200160002060030154610bce91906112c8565b905043811015610be2576000915050610bfe565b600a4382610bf0919061185d565b610bfa91906118c0565b9150505b919050565b6000600a6003600084815260200190815260200160002060040154610c2891906118c0565b9050919050565b6000604051905090565b600080fd5b600080fd5b6000819050919050565b610c5681610c43565b8114610c6157600080fd5b50565b600081359050610c7381610c4d565b92915050565b600060208284031215610c8f57610c8e610c39565b5b6000610c9d84828501610c64565b91505092915050565b600080fd5b6000601f19601f8301169050919050565b7f4e487b7100000000000000000000000000000000000000000000000000000000600052604160045260246000fd5b610cf482610cab565b810181811067ffffffffffffffff82111715610d1357610d12610cbc565b5b80604052505050565b6000610d26610c2f565b9050610d328282610ceb565b919050565b600080fd5b600080fd5b600080fd5b600067ffffffffffffffff821115610d6157610d60610cbc565b5b610d6a82610cab565b9050602081019050919050565b82818337600083830152505050565b6000610d99610d9484610d46565b610d1c565b905082815260208101848484011115610db557610db4610d41565b5b610dc0848285610d77565b509392505050565b600082601f830112610ddd57610ddc610d3c565b5b8135610ded848260208601610d86565b91505092915050565b6000819050919050565b610e0981610df6565b8114610e1457600080fd5b50565b600081359050610e2681610e00565b92915050565b600060c08284031215610e4257610e41610ca6565b5b610e4c60c0610d1c565b9050600082013567ffffffffffffffff811115610e6c57610e6b610d37565b5b610e7884828501610dc8565b6000830152506020610e8c84828501610e17565b6020830152506040610ea084828501610e17565b6040830152506060610eb484828501610e17565b6060830152506080610ec884828501610e17565b60808301525060a0610edc84828501610e17565b60a08301525092915050565b60008060408385031215610eff57610efe610c39565b5b6000610f0d85828601610c64565b925050602083013567ffffffffffffffff811115610f2e57610f2d610c3e565b5b610f3a85828601610e2c565b9150509250929050565b60008060408385031215610f5b57610f5a610c39565b5b6000610f6985828601610c64565b9250506020610f7a85828601610e17565b9150509250929050565b600073ffffffffffffffffffffffffffffffffffffffff82169050919050565b6000610faf82610f84565b9050919050565b610fbf81610fa4565b8114610fca57600080fd5b50565b600081359050610fdc81610fb6565b92915050565b60008060408385031215610ff957610ff8610c39565b5b600061100785828601610fcd565b925050602061101885828601610e17565b9150509250929050565b61102b81610c43565b82525050565b60006020820190506110466000830184611022565b92915050565b600081519050919050565b600082825260208201905092915050565b60005b8381101561108657808201518184015260208101905061106b565b60008484015250505050565b600061109d8261104c565b6110a78185611057565b93506110b7818560208601611068565b6110c081610cab565b840191505092915050565b6110d481610df6565b82525050565b600060c08201905081810360008301526110f48189611092565b905061110360208301886110cb565b61111060408301876110cb565b61111d60608301866110cb565b61112a60808301856110cb565b61113760a08301846110cb565b979650505050505050565b6000806040838503121561115957611158610c39565b5b600061116785828601610c64565b925050602061117885828601610fcd565b9150509250929050565b60008115159050919050565b61119781611182565b82525050565b60006020820190506111b2600083018461118e565b92915050565b6000602082840312156111ce576111cd610c39565b5b60006111dc84828501610e17565b91505092915050565b6000602082840312156111fb576111fa610c39565b5b600061120984828501610fcd565b91505092915050565b600060208201905061122760008301846110cb565b92915050565b7f4552523a20416c6c20706c616365732061726520726573657276656421000000600082015250565b6000611263601d83611057565b915061126e8261122d565b602082019050919050565b6000602082019050818103600083015261129281611256565b9050919050565b7f4e487b7100000000000000000000000000000000000000000000000000000000600052601160045260246000fd5b60006112d382610df6565b91506112de83610df6565b92508282019050808211156112f6576112f5611299565b5b92915050565b7f4e487b7100000000000000000000000000000000000000000000000000000000600052602260045260246000fd5b6000600282049050600182168061134357607f821691505b602082108103611356576113556112fc565b5b50919050565b60008190508160005260206000209050919050565b60006020601f8301049050919050565b600082821b905092915050565b6000600883026113be7fffffffffffffffffffffffffffffffffffffffffffffffffffffffffffffffff82611381565b6113c88683611381565b95508019841693508086168417925050509392505050565b6000819050919050565b60006114056114006113fb84610df6565b6113e0565b610df6565b9050919050565b6000819050919050565b61141f836113ea565b61143361142b8261140c565b84845461138e565b825550505050565b600090565b61144861143b565b611453818484611416565b505050565b5b818110156114775761146c600082611440565b600181019050611459565b5050565b601f8211156114bc5761148d8161135c565b61149684611371565b810160208510156114a5578190505b6114b96114b185611371565b830182611458565b50505b505050565b600082821c905092915050565b60006114df600019846008026114c1565b1980831691505092915050565b60006114f883836114ce565b9150826002028217905092915050565b6115118261104c565b67ffffffffffffffff81111561152a57611529610cbc565b5b611534825461132b565b61153f82828561147b565b600060209050601f8311600181146115725760008415611560578287015190505b61156a85826114ec565b8655506115d2565b601f1984166115808661135c565b60005b828110156115a857848901518255600182019150602085019450602081019050611583565b868310156115c557848901516115c1601f8916826114ce565b8355505b6001600288020188555050505b505050505050565b60006115e582610f84565b9050919050565b6115f5816115da565b82525050565b600060208201905061161060008301846115ec565b92915050565b7f4552523a20596f752068617665206e6f74206d6164652061207265736572766160008201527f74696f6e20746f2073746f726520746869732046696c65210000000000000000602082015250565b6000611672603883611057565b915061167d82611616565b604082019050919050565b600060208201905081810360008301526116a181611665565b9050919050565b7f4552523a2054686973206465616c49642068617320616c72656164792062656560008201527f6e20636c61696d65642100000000000000000000000000000000000000000000602082015250565b6000611704602a83611057565b915061170f826116a8565b604082019050919050565b60006020820190508181036000830152611733816116f7565b9050919050565b7f4552523a20596f7520616c7265616479206d61646520656e6f75676820636c6160008201527f696d73202d207761697420666f7220746865206e657874205465726d00000000602082015250565b6000611796603c83611057565b91506117a18261173a565b604082019050919050565b600060208201905081810360008301526117c581611789565b9050919050565b6117d581610fa4565b82525050565b60006040820190506117f060008301856117cc565b6117fd60208301846110cb565b9392505050565b61180d81611182565b811461181857600080fd5b50565b60008151905061182a81611804565b92915050565b60006020828403121561184657611845610c39565b5b60006118548482850161181b565b91505092915050565b600061186882610df6565b915061187383610df6565b925082820390508181111561188b5761188a611299565b5b92915050565b7f4e487b7100000000000000000000000000000000000000000000000000000000600052601260045260246000fd5b60006118cb82610df6565b91506118d683610df6565b9250826118e6576118e5611891565b5b82820490509291505056fea2646970667358221220ab534f12a41477b677088a224aabc3ed7cf9a263d88256e8f213ba5c2180448e64736f6c63430008110033",
  "linkReferences": {},
  "deployedLinkReferences": {}
}