{
  "_format": "hh-sol-artifact-1",
  "contractName": "SimpleCoin",
  "sourceName": "contracts/basic-solidity-examples/SimpleCoin.sol",
  "abi": [
    {
      "inputs": [
        {
          "internalType": "uint256",
          "name": "tokensToBeMinted",
          "type": "uint256"
        }
      ],
      "stateMutability": "nonpayable",
      "type": "constructor"
    },
    {
      "inputs": [],
      "name": "SimpleCoin__NotEnoughBalance",
      "type": "error"
    },
    {
      "anonymous": false,
      "inputs": [
        {
          "indexed": true,
          "internalType": "uint256",
          "name": "numberTokensMinted",
          "type": "uint256"
        },
        {
          "indexed": false,
          "internalType": "address",
          "name": "owner",
          "type": "address"
        }
      ],
      "name": "tokensMinted",
      "type": "event"
    },
    {
      "inputs": [
        {
          "internalType": "address",
          "name": "",
          "type": "address"
        }
      ],
      "name": "balances",
      "outputs": [
        {
          "internalType": "uint256",
          "name": "",
          "type": "uint256"
        }
      ],
      "stateMutability": "view",
      "type": "function"
    },
    {
      "inputs": [
        {
          "internalType": "address",
          "name": "addr",
          "type": "address"
        }
      ],
      "name": "getBalance",
      "outputs": [
        {
          "internalType": "uint256",
          "name": "",
          "type": "uint256"
        }
      ],
      "stateMutability": "view",
      "type": "function"
    },
    {
      "inputs": [],
      "name": "getMintedTokenBalance",
      "outputs": [
        {
          "internalType": "uint256",
          "name": "",
          "type": "uint256"
        }
      ],
      "stateMutability": "view",
      "type": "function"
    },
    {
      "inputs": [
        {
          "internalType": "address",
          "name": "receiver",
          "type": "address"
        },
        {
          "internalType": "uint256",
          "name": "amount",
          "type": "uint256"
        }
      ],
      "name": "sendCoin",
      "outputs": [
        {
          "internalType": "bool",
          "name": "sufficient",
          "type": "bool"
        }
      ],
      "stateMutability": "nonpayable",
      "type": "function"
    }
  ],
  "bytecode": "0x608060405234801561001057600080fd5b50604051610657380380610657833981810160405281019061003291906100f5565b806000803273ffffffffffffffffffffffffffffffffffffffff1673ffffffffffffffffffffffffffffffffffffffff1681526020019081526020016000208190555080600181905550807f98f1e05ac89e19c9c4e467fdf3269e120060140cd5907933dc7e099cea61900b336040516100ac9190610163565b60405180910390a25061017e565b600080fd5b6000819050919050565b6100d2816100bf565b81146100dd57600080fd5b50565b6000815190506100ef816100c9565b92915050565b60006020828403121561010b5761010a6100ba565b5b6000610119848285016100e0565b91505092915050565b600073ffffffffffffffffffffffffffffffffffffffff82169050919050565b600061014d82610122565b9050919050565b61015d81610142565b82525050565b60006020820190506101786000830184610154565b92915050565b6104ca8061018d6000396000f3fe608060405234801561001057600080fd5b506004361061004c5760003560e01c806327e235e31461005157806337a151b81461008157806390b98a111461009f578063f8b2cb4f146100cf575b600080fd5b61006b600480360381019061006691906102fa565b6100ff565b6040516100789190610340565b60405180910390f35b610089610117565b6040516100969190610340565b60405180910390f35b6100b960048036038101906100b49190610387565b610121565b6040516100c691906103e2565b60405180910390f35b6100e960048036038101906100e491906102fa565b61024f565b6040516100f69190610340565b60405180910390f35b60006020528060005260406000206000915090505481565b6000600154905090565b6000816000803373ffffffffffffffffffffffffffffffffffffffff1673ffffffffffffffffffffffffffffffffffffffff16815260200190815260200160002054101561019b576040517f86e25f3100000000000000000000000000000000000000000000000000000000815260040160405180910390fd5b816000803373ffffffffffffffffffffffffffffffffffffffff1673ffffffffffffffffffffffffffffffffffffffff16815260200190815260200160002060008282546101e9919061042c565b92505081905550816000808573ffffffffffffffffffffffffffffffffffffffff1673ffffffffffffffffffffffffffffffffffffffff168152602001908152602001600020600082825461023e9190610460565b925050819055506001905092915050565b60008060008373ffffffffffffffffffffffffffffffffffffffff1673ffffffffffffffffffffffffffffffffffffffff168152602001908152602001600020549050919050565b600080fd5b600073ffffffffffffffffffffffffffffffffffffffff82169050919050565b60006102c78261029c565b9050919050565b6102d7816102bc565b81146102e257600080fd5b50565b6000813590506102f4816102ce565b92915050565b6000602082840312156103105761030f610297565b5b600061031e848285016102e5565b91505092915050565b6000819050919050565b61033a81610327565b82525050565b60006020820190506103556000830184610331565b92915050565b61036481610327565b811461036f57600080fd5b50565b6000813590506103818161035b565b92915050565b6000806040838503121561039e5761039d610297565b5b60006103ac858286016102e5565b92505060206103bd85828601610372565b9150509250929050565b60008115159050919050565b6103dc816103c7565b82525050565b60006020820190506103f760008301846103d3565b92915050565b7f4e487b7100000000000000000000000000000000000000000000000000000000600052601160045260246000fd5b600061043782610327565b915061044283610327565b925082820390508181111561045a576104596103fd565b5b92915050565b600061046b82610327565b915061047683610327565b925082820190508082111561048e5761048d6103fd565b5b9291505056fea2646970667358221220633d715891912df9c58aba589782280dbc4c3ca778f66e018d9383e32fe2408564736f6c63430008110033",
  "linkReferences": {},
  "deployedLinkReferences": {}
}