{"contracts/filesaver/FileSaver.sol":{"FileSaver":{"abi":[{"inputs":[{"internalType":"address payable","name":"_sFIL_Address","type":"address"}],"stateMutability":"nonpayable","type":"constructor"},{"inputs":[{"internalType":"bytes32","name":"_cid","type":"bytes32"},{"internalType":"uint256","name":"_dealId","type":"uint256"}],"name":"claim","outputs":[],"stateMutability":"nonpayable","type":"function"},{"inputs":[{"internalType":"bytes32","name":"_cid","type":"bytes32"},{"components":[{"internalType":"uint256","name":"replicas","type":"uint256"},{"internalType":"uint256","name":"activeReplicas","type":"uint256"},{"internalType":"uint256","name":"createdAt","type":"uint256"},{"internalType":"uint256","name":"duration","type":"uint256"},{"internalType":"uint256","name":"amount","type":"uint256"}],"internalType":"struct FileSaver.PerpetualDeal","name":"_pd","type":"tuple"}],"name":"proposePerpetualDeal","outputs":[],"stateMutability":"payable","type":"function"},{"inputs":[{"internalType":"bytes32","name":"_cid","type":"bytes32"}],"name":"reserve","outputs":[],"stateMutability":"payable","type":"function"}],"devdoc":{"kind":"dev","methods":{},"version":1},"evm":{"bytecode":{"linkReferences":{},"object":"608060405234801561001057600080fd5b50604051610ce8380380610ce8833981810160405281019061003291906100db565b806000806101000a81548173ffffffffffffffffffffffffffffffffffffffff021916908373ffffffffffffffffffffffffffffffffffffffff16021790555050610108565b600080fd5b600073ffffffffffffffffffffffffffffffffffffffff82169050919050565b60006100a88261007d565b9050919050565b6100b88161009d565b81146100c357600080fd5b50565b6000815190506100d5816100af565b92915050565b6000602082840312156100f1576100f0610078565b5b60006100ff848285016100c6565b91505092915050565b610bd1806101176000396000f3fe6080604052600436106100345760003560e01c8063432ced041461003957806363f4496814610055578063d6c771091461007e575b600080fd5b610053600480360381019061004e9190610615565b61009a565b005b34801561006157600080fd5b5061007c60048036038101906100779190610678565b6101a1565b005b610098600480360381019061009391906107d5565b6103e4565b005b6001600082815260200190815260200160002060000154600160008381526020019081526020016000206001015410610108576040517f08c379a00000000000000000000000000000000000000000000000000000000081526004016100ff90610872565b60405180910390fd5b60016002600083815260200190815260200160002060003373ffffffffffffffffffffffffffffffffffffffff1673ffffffffffffffffffffffffffffffffffffffff16815260200190815260200160002060006101000a81548160ff0219169083151502179055506001806000838152602001908152602001600020600101600082825461019791906108c1565b9250508190555050565b600115156002600084815260200190815260200160002060003373ffffffffffffffffffffffffffffffffffffffff1673ffffffffffffffffffffffffffffffffffffffff16815260200190815260200160002060009054906101000a900460ff16151514610245576040517f08c379a000000000000000000000000000000000000000000000000000000000815260040161023c90610967565b60405180910390fd5b600015156004600083815260200190815260200160002060009054906101000a900460ff161515146102ac576040517f08c379a00000000000000000000000000000000000000000000000000000000081526004016102a3906109f9565b60405180910390fd5b6003600083815260200190815260200160002060003373ffffffffffffffffffffffffffffffffffffffff1673ffffffffffffffffffffffffffffffffffffffff168152602001908152602001600020546103068361050f565b11610346576040517f08c379a000000000000000000000000000000000000000000000000000000000815260040161033d90610a8b565b60405180910390fd5b600033905060016003600085815260200190815260200160002060008373ffffffffffffffffffffffffffffffffffffffff1673ffffffffffffffffffffffffffffffffffffffff16815260200190815260200160002060008282546103ac91906108c1565b9250508190555060016004600084815260200190815260200160002060006101000a81548160ff021916908315150217905550505050565b806001600084815260200190815260200160002060008201518160000155602082015181600101556040820151816002015560608201518160030155608082015181600401559050506000600160008481526020019081526020016000206001018190555043600160008481526020019081526020016000206002018190555034600160008481526020019081526020016000206004018190555060008054906101000a900473ffffffffffffffffffffffffffffffffffffffff1673ffffffffffffffffffffffffffffffffffffffff16634ac5a3f534306040518363ffffffff1660e01b81526004016104d99190610aec565b6000604051808303818588803b1580156104f257600080fd5b505af1158015610506573d6000803e3d6000fd5b50505050505050565b600061051a82610534565b610523836105a4565b61052d9190610b07565b9050919050565b6000806001600084815260200190815260200160002060030154600160008581526020019081526020016000206002015461056f91906108c1565b90504381101561058357600091505061059f565b600a43826105919190610b07565b61059b9190610b6a565b9150505b919050565b6000600a60016000848152602001908152602001600020600301546105c99190610b6a565b9050919050565b6000604051905090565b600080fd5b6000819050919050565b6105f2816105df565b81146105fd57600080fd5b50565b60008135905061060f816105e9565b92915050565b60006020828403121561062b5761062a6105da565b5b600061063984828501610600565b91505092915050565b6000819050919050565b61065581610642565b811461066057600080fd5b50565b6000813590506106728161064c565b92915050565b6000806040838503121561068f5761068e6105da565b5b600061069d85828601610600565b92505060206106ae85828601610663565b9150509250929050565b600080fd5b6000601f19601f8301169050919050565b7f4e487b7100000000000000000000000000000000000000000000000000000000600052604160045260246000fd5b610706826106bd565b810181811067ffffffffffffffff82111715610725576107246106ce565b5b80604052505050565b60006107386105d0565b905061074482826106fd565b919050565b600060a0828403121561075f5761075e6106b8565b5b61076960a061072e565b9050600061077984828501610663565b600083015250602061078d84828501610663565b60208301525060406107a184828501610663565b60408301525060606107b584828501610663565b60608301525060806107c984828501610663565b60808301525092915050565b60008060c083850312156107ec576107eb6105da565b5b60006107fa85828601610600565b925050602061080b85828601610749565b9150509250929050565b600082825260208201905092915050565b7f4552523a20416c6c20706c616365732061726520726573657276656421000000600082015250565b600061085c601d83610815565b915061086782610826565b602082019050919050565b6000602082019050818103600083015261088b8161084f565b9050919050565b7f4e487b7100000000000000000000000000000000000000000000000000000000600052601160045260246000fd5b60006108cc82610642565b91506108d783610642565b92508282019050808211156108ef576108ee610892565b5b92915050565b7f4552523a20596f752068617665206e6f74206d6164652061207265736572766160008201527f74696f6e20746f2073746f726520746869732046696c65210000000000000000602082015250565b6000610951603883610815565b915061095c826108f5565b604082019050919050565b6000602082019050818103600083015261098081610944565b9050919050565b7f4552523a2054686973206465616c49642068617320616c72656164792062656560008201527f6e20636c61696d65642100000000000000000000000000000000000000000000602082015250565b60006109e3602a83610815565b91506109ee82610987565b604082019050919050565b60006020820190508181036000830152610a12816109d6565b9050919050565b7f4552523a20596f7520616c7265616479206d61646520656e6f75676820636c6160008201527f696d73202d207761697420666f7220746865206e657874205465726d00000000602082015250565b6000610a75603c83610815565b9150610a8082610a19565b604082019050919050565b60006020820190508181036000830152610aa481610a68565b9050919050565b600073ffffffffffffffffffffffffffffffffffffffff82169050919050565b6000610ad682610aab565b9050919050565b610ae681610acb565b82525050565b6000602082019050610b016000830184610add565b92915050565b6000610b1282610642565b9150610b1d83610642565b9250828203905081811115610b3557610b34610892565b5b92915050565b7f4e487b7100000000000000000000000000000000000000000000000000000000600052601260045260246000fd5b6000610b7582610642565b9150610b8083610642565b925082610b9057610b8f610b3b565b5b82820490509291505056fea2646970667358221220c8209794bc058d32e7d6ccc87b9347ec1040d466152f31ccd680ddff8fc42ac164736f6c63430008110033","opcodes":"PUSH1 0x80 PUSH1 0x40 MSTORE CALLVALUE DUP1 ISZERO PUSH2 0x10 JUMPI PUSH1 0x0 DUP1 REVERT JUMPDEST POP PUSH1 0x40 MLOAD PUSH2 0xCE8 CODESIZE SUB DUP1 PUSH2 0xCE8 DUP4 CODECOPY DUP2 DUP2 ADD PUSH1 0x40 MSTORE DUP2 ADD SWAP1 PUSH2 0x32 SWAP2 SWAP1 PUSH2 0xDB JUMP JUMPDEST DUP1 PUSH1 0x0 DUP1 PUSH2 0x100 EXP DUP2 SLOAD DUP2 PUSH20 0xFFFFFFFFFFFFFFFFFFFFFFFFFFFFFFFFFFFFFFFF MUL NOT AND SWAP1 DUP4 PUSH20 0xFFFFFFFFFFFFFFFFFFFFFFFFFFFFFFFFFFFFFFFF AND MUL OR SWAP1 SSTORE POP POP PUSH2 0x108 JUMP JUMPDEST PUSH1 0x0 DUP1 REVERT JUMPDEST PUSH1 0x0 PUSH20 0xFFFFFFFFFFFFFFFFFFFFFFFFFFFFFFFFFFFFFFFF DUP3 AND SWAP1 POP SWAP2 SWAP1 POP JUMP JUMPDEST PUSH1 0x0 PUSH2 0xA8 DUP3 PUSH2 0x7D JUMP JUMPDEST SWAP1 POP SWAP2 SWAP1 POP JUMP JUMPDEST PUSH2 0xB8 DUP2 PUSH2 0x9D JUMP JUMPDEST DUP2 EQ PUSH2 0xC3 JUMPI PUSH1 0x0 DUP1 REVERT JUMPDEST POP JUMP JUMPDEST PUSH1 0x0 DUP2 MLOAD SWAP1 POP PUSH2 0xD5 DUP2 PUSH2 0xAF JUMP JUMPDEST SWAP3 SWAP2 POP POP JUMP JUMPDEST PUSH1 0x0 PUSH1 0x20 DUP3 DUP5 SUB SLT ISZERO PUSH2 0xF1 JUMPI PUSH2 0xF0 PUSH2 0x78 JUMP JUMPDEST JUMPDEST PUSH1 0x0 PUSH2 0xFF DUP5 DUP3 DUP6 ADD PUSH2 0xC6 JUMP JUMPDEST SWAP2 POP POP SWAP3 SWAP2 POP POP JUMP JUMPDEST PUSH2 0xBD1 DUP1 PUSH2 0x117 PUSH1 0x0 CODECOPY PUSH1 0x0 RETURN INVALID PUSH1 0x80 PUSH1 0x40 MSTORE PUSH1 0x4 CALLDATASIZE LT PUSH2 0x34 JUMPI PUSH1 0x0 CALLDATALOAD PUSH1 0xE0 SHR DUP1 PUSH4 0x432CED04 EQ PUSH2 0x39 JUMPI DUP1 PUSH4 0x63F44968 EQ PUSH2 0x55 JUMPI DUP1 PUSH4 0xD6C77109 EQ PUSH2 0x7E JUMPI JUMPDEST PUSH1 0x0 DUP1 REVERT JUMPDEST PUSH2 0x53 PUSH1 0x4 DUP1 CALLDATASIZE SUB DUP2 ADD SWAP1 PUSH2 0x4E SWAP2 SWAP1 PUSH2 0x615 JUMP JUMPDEST PUSH2 0x9A JUMP JUMPDEST STOP JUMPDEST CALLVALUE DUP1 ISZERO PUSH2 0x61 JUMPI PUSH1 0x0 DUP1 REVERT JUMPDEST POP PUSH2 0x7C PUSH1 0x4 DUP1 CALLDATASIZE SUB DUP2 ADD SWAP1 PUSH2 0x77 SWAP2 SWAP1 PUSH2 0x678 JUMP JUMPDEST PUSH2 0x1A1 JUMP JUMPDEST STOP JUMPDEST PUSH2 0x98 PUSH1 0x4 DUP1 CALLDATASIZE SUB DUP2 ADD SWAP1 PUSH2 0x93 SWAP2 SWAP1 PUSH2 0x7D5 JUMP JUMPDEST PUSH2 0x3E4 JUMP JUMPDEST STOP JUMPDEST PUSH1 0x1 PUSH1 0x0 DUP3 DUP2 MSTORE PUSH1 0x20 ADD SWAP1 DUP2 MSTORE PUSH1 0x20 ADD PUSH1 0x0 KECCAK256 PUSH1 0x0 ADD SLOAD PUSH1 0x1 PUSH1 0x0 DUP4 DUP2 MSTORE PUSH1 0x20 ADD SWAP1 DUP2 MSTORE PUSH1 0x20 ADD PUSH1 0x0 KECCAK256 PUSH1 0x1 ADD SLOAD LT PUSH2 0x108 JUMPI PUSH1 0x40 MLOAD PUSH32 0x8C379A000000000000000000000000000000000000000000000000000000000 DUP2 MSTORE PUSH1 0x4 ADD PUSH2 0xFF SWAP1 PUSH2 0x872 JUMP JUMPDEST PUSH1 0x40 MLOAD DUP1 SWAP2 SUB SWAP1 REVERT JUMPDEST PUSH1 0x1 PUSH1 0x2 PUSH1 0x0 DUP4 DUP2 MSTORE PUSH1 0x20 ADD SWAP1 DUP2 MSTORE PUSH1 0x20 ADD PUSH1 0x0 KECCAK256 PUSH1 0x0 CALLER PUSH20 0xFFFFFFFFFFFFFFFFFFFFFFFFFFFFFFFFFFFFFFFF AND PUSH20 0xFFFFFFFFFFFFFFFFFFFFFFFFFFFFFFFFFFFFFFFF AND DUP2 MSTORE PUSH1 0x20 ADD SWAP1 DUP2 MSTORE PUSH1 0x20 ADD PUSH1 0x0 KECCAK256 PUSH1 0x0 PUSH2 0x100 EXP DUP2 SLOAD DUP2 PUSH1 0xFF MUL NOT AND SWAP1 DUP4 ISZERO ISZERO MUL OR SWAP1 SSTORE POP PUSH1 0x1 DUP1 PUSH1 0x0 DUP4 DUP2 MSTORE PUSH1 0x20 ADD SWAP1 DUP2 MSTORE PUSH1 0x20 ADD PUSH1 0x0 KECCAK256 PUSH1 0x1 ADD PUSH1 0x0 DUP3 DUP3 SLOAD PUSH2 0x197 SWAP2 SWAP1 PUSH2 0x8C1 JUMP JUMPDEST SWAP3 POP POP DUP2 SWAP1 SSTORE POP POP JUMP JUMPDEST PUSH1 0x1 ISZERO ISZERO PUSH1 0x2 PUSH1 0x0 DUP5 DUP2 MSTORE PUSH1 0x20 ADD SWAP1 DUP2 MSTORE PUSH1 0x20 ADD PUSH1 0x0 KECCAK256 PUSH1 0x0 CALLER PUSH20 0xFFFFFFFFFFFFFFFFFFFFFFFFFFFFFFFFFFFFFFFF AND PUSH20 0xFFFFFFFFFFFFFFFFFFFFFFFFFFFFFFFFFFFFFFFF AND DUP2 MSTORE PUSH1 0x20 ADD SWAP1 DUP2 MSTORE PUSH1 0x20 ADD PUSH1 0x0 KECCAK256 PUSH1 0x0 SWAP1 SLOAD SWAP1 PUSH2 0x100 EXP SWAP1 DIV PUSH1 0xFF AND ISZERO ISZERO EQ PUSH2 0x245 JUMPI PUSH1 0x40 MLOAD PUSH32 0x8C379A000000000000000000000000000000000000000000000000000000000 DUP2 MSTORE PUSH1 0x4 ADD PUSH2 0x23C SWAP1 PUSH2 0x967 JUMP JUMPDEST PUSH1 0x40 MLOAD DUP1 SWAP2 SUB SWAP1 REVERT JUMPDEST PUSH1 0x0 ISZERO ISZERO PUSH1 0x4 PUSH1 0x0 DUP4 DUP2 MSTORE PUSH1 0x20 ADD SWAP1 DUP2 MSTORE PUSH1 0x20 ADD PUSH1 0x0 KECCAK256 PUSH1 0x0 SWAP1 SLOAD SWAP1 PUSH2 0x100 EXP SWAP1 DIV PUSH1 0xFF AND ISZERO ISZERO EQ PUSH2 0x2AC JUMPI PUSH1 0x40 MLOAD PUSH32 0x8C379A000000000000000000000000000000000000000000000000000000000 DUP2 MSTORE PUSH1 0x4 ADD PUSH2 0x2A3 SWAP1 PUSH2 0x9F9 JUMP JUMPDEST PUSH1 0x40 MLOAD DUP1 SWAP2 SUB SWAP1 REVERT JUMPDEST PUSH1 0x3 PUSH1 0x0 DUP4 DUP2 MSTORE PUSH1 0x20 ADD SWAP1 DUP2 MSTORE PUSH1 0x20 ADD PUSH1 0x0 KECCAK256 PUSH1 0x0 CALLER PUSH20 0xFFFFFFFFFFFFFFFFFFFFFFFFFFFFFFFFFFFFFFFF AND PUSH20 0xFFFFFFFFFFFFFFFFFFFFFFFFFFFFFFFFFFFFFFFF AND DUP2 MSTORE PUSH1 0x20 ADD SWAP1 DUP2 MSTORE PUSH1 0x20 ADD PUSH1 0x0 KECCAK256 SLOAD PUSH2 0x306 DUP4 PUSH2 0x50F JUMP JUMPDEST GT PUSH2 0x346 JUMPI PUSH1 0x40 MLOAD PUSH32 0x8C379A000000000000000000000000000000000000000000000000000000000 DUP2 MSTORE PUSH1 0x4 ADD PUSH2 0x33D SWAP1 PUSH2 0xA8B JUMP JUMPDEST PUSH1 0x40 MLOAD DUP1 SWAP2 SUB SWAP1 REVERT JUMPDEST PUSH1 0x0 CALLER SWAP1 POP PUSH1 0x1 PUSH1 0x3 PUSH1 0x0 DUP6 DUP2 MSTORE PUSH1 0x20 ADD SWAP1 DUP2 MSTORE PUSH1 0x20 ADD PUSH1 0x0 KECCAK256 PUSH1 0x0 DUP4 PUSH20 0xFFFFFFFFFFFFFFFFFFFFFFFFFFFFFFFFFFFFFFFF AND PUSH20 0xFFFFFFFFFFFFFFFFFFFFFFFFFFFFFFFFFFFFFFFF AND DUP2 MSTORE PUSH1 0x20 ADD SWAP1 DUP2 MSTORE PUSH1 0x20 ADD PUSH1 0x0 KECCAK256 PUSH1 0x0 DUP3 DUP3 SLOAD PUSH2 0x3AC SWAP2 SWAP1 PUSH2 0x8C1 JUMP JUMPDEST SWAP3 POP POP DUP2 SWAP1 SSTORE POP PUSH1 0x1 PUSH1 0x4 PUSH1 0x0 DUP5 DUP2 MSTORE PUSH1 0x20 ADD SWAP1 DUP2 MSTORE PUSH1 0x20 ADD PUSH1 0x0 KECCAK256 PUSH1 0x0 PUSH2 0x100 EXP DUP2 SLOAD DUP2 PUSH1 0xFF MUL NOT AND SWAP1 DUP4 ISZERO ISZERO MUL OR SWAP1 SSTORE POP POP POP POP JUMP JUMPDEST DUP1 PUSH1 0x1 PUSH1 0x0 DUP5 DUP2 MSTORE PUSH1 0x20 ADD SWAP1 DUP2 MSTORE PUSH1 0x20 ADD PUSH1 0x0 KECCAK256 PUSH1 0x0 DUP3 ADD MLOAD DUP2 PUSH1 0x0 ADD SSTORE PUSH1 0x20 DUP3 ADD MLOAD DUP2 PUSH1 0x1 ADD SSTORE PUSH1 0x40 DUP3 ADD MLOAD DUP2 PUSH1 0x2 ADD SSTORE PUSH1 0x60 DUP3 ADD MLOAD DUP2 PUSH1 0x3 ADD SSTORE PUSH1 0x80 DUP3 ADD MLOAD DUP2 PUSH1 0x4 ADD SSTORE SWAP1 POP POP PUSH1 0x0 PUSH1 0x1 PUSH1 0x0 DUP5 DUP2 MSTORE PUSH1 0x20 ADD SWAP1 DUP2 MSTORE PUSH1 0x20 ADD PUSH1 0x0 KECCAK256 PUSH1 0x1 ADD DUP2 SWAP1 SSTORE POP NUMBER PUSH1 0x1 PUSH1 0x0 DUP5 DUP2 MSTORE PUSH1 0x20 ADD SWAP1 DUP2 MSTORE PUSH1 0x20 ADD PUSH1 0x0 KECCAK256 PUSH1 0x2 ADD DUP2 SWAP1 SSTORE POP CALLVALUE PUSH1 0x1 PUSH1 0x0 DUP5 DUP2 MSTORE PUSH1 0x20 ADD SWAP1 DUP2 MSTORE PUSH1 0x20 ADD PUSH1 0x0 KECCAK256 PUSH1 0x4 ADD DUP2 SWAP1 SSTORE POP PUSH1 0x0 DUP1 SLOAD SWAP1 PUSH2 0x100 EXP SWAP1 DIV PUSH20 0xFFFFFFFFFFFFFFFFFFFFFFFFFFFFFFFFFFFFFFFF AND PUSH20 0xFFFFFFFFFFFFFFFFFFFFFFFFFFFFFFFFFFFFFFFF AND PUSH4 0x4AC5A3F5 CALLVALUE ADDRESS PUSH1 0x40 MLOAD DUP4 PUSH4 0xFFFFFFFF AND PUSH1 0xE0 SHL DUP2 MSTORE PUSH1 0x4 ADD PUSH2 0x4D9 SWAP2 SWAP1 PUSH2 0xAEC JUMP JUMPDEST PUSH1 0x0 PUSH1 0x40 MLOAD DUP1 DUP4 SUB DUP2 DUP6 DUP9 DUP1 EXTCODESIZE ISZERO DUP1 ISZERO PUSH2 0x4F2 JUMPI PUSH1 0x0 DUP1 REVERT JUMPDEST POP GAS CALL ISZERO DUP1 ISZERO PUSH2 0x506 JUMPI RETURNDATASIZE PUSH1 0x0 DUP1 RETURNDATACOPY RETURNDATASIZE PUSH1 0x0 REVERT JUMPDEST POP POP POP POP POP POP POP JUMP JUMPDEST PUSH1 0x0 PUSH2 0x51A DUP3 PUSH2 0x534 JUMP JUMPDEST PUSH2 0x523 DUP4 PUSH2 0x5A4 JUMP JUMPDEST PUSH2 0x52D SWAP2 SWAP1 PUSH2 0xB07 JUMP JUMPDEST SWAP1 POP SWAP2 SWAP1 POP JUMP JUMPDEST PUSH1 0x0 DUP1 PUSH1 0x1 PUSH1 0x0 DUP5 DUP2 MSTORE PUSH1 0x20 ADD SWAP1 DUP2 MSTORE PUSH1 0x20 ADD PUSH1 0x0 KECCAK256 PUSH1 0x3 ADD SLOAD PUSH1 0x1 PUSH1 0x0 DUP6 DUP2 MSTORE PUSH1 0x20 ADD SWAP1 DUP2 MSTORE PUSH1 0x20 ADD PUSH1 0x0 KECCAK256 PUSH1 0x2 ADD SLOAD PUSH2 0x56F SWAP2 SWAP1 PUSH2 0x8C1 JUMP JUMPDEST SWAP1 POP NUMBER DUP2 LT ISZERO PUSH2 0x583 JUMPI PUSH1 0x0 SWAP2 POP POP PUSH2 0x59F JUMP JUMPDEST PUSH1 0xA NUMBER DUP3 PUSH2 0x591 SWAP2 SWAP1 PUSH2 0xB07 JUMP JUMPDEST PUSH2 0x59B SWAP2 SWAP1 PUSH2 0xB6A JUMP JUMPDEST SWAP2 POP POP JUMPDEST SWAP2 SWAP1 POP JUMP JUMPDEST PUSH1 0x0 PUSH1 0xA PUSH1 0x1 PUSH1 0x0 DUP5 DUP2 MSTORE PUSH1 0x20 ADD SWAP1 DUP2 MSTORE PUSH1 0x20 ADD PUSH1 0x0 KECCAK256 PUSH1 0x3 ADD SLOAD PUSH2 0x5C9 SWAP2 SWAP1 PUSH2 0xB6A JUMP JUMPDEST SWAP1 POP SWAP2 SWAP1 POP JUMP JUMPDEST PUSH1 0x0 PUSH1 0x40 MLOAD SWAP1 POP SWAP1 JUMP JUMPDEST PUSH1 0x0 DUP1 REVERT JUMPDEST PUSH1 0x0 DUP2 SWAP1 POP SWAP2 SWAP1 POP JUMP JUMPDEST PUSH2 0x5F2 DUP2 PUSH2 0x5DF JUMP JUMPDEST DUP2 EQ PUSH2 0x5FD JUMPI PUSH1 0x0 DUP1 REVERT JUMPDEST POP JUMP JUMPDEST PUSH1 0x0 DUP2 CALLDATALOAD SWAP1 POP PUSH2 0x60F DUP2 PUSH2 0x5E9 JUMP JUMPDEST SWAP3 SWAP2 POP POP JUMP JUMPDEST PUSH1 0x0 PUSH1 0x20 DUP3 DUP5 SUB SLT ISZERO PUSH2 0x62B JUMPI PUSH2 0x62A PUSH2 0x5DA JUMP JUMPDEST JUMPDEST PUSH1 0x0 PUSH2 0x639 DUP5 DUP3 DUP6 ADD PUSH2 0x600 JUMP JUMPDEST SWAP2 POP POP SWAP3 SWAP2 POP POP JUMP JUMPDEST PUSH1 0x0 DUP2 SWAP1 POP SWAP2 SWAP1 POP JUMP JUMPDEST PUSH2 0x655 DUP2 PUSH2 0x642 JUMP JUMPDEST DUP2 EQ PUSH2 0x660 JUMPI PUSH1 0x0 DUP1 REVERT JUMPDEST POP JUMP JUMPDEST PUSH1 0x0 DUP2 CALLDATALOAD SWAP1 POP PUSH2 0x672 DUP2 PUSH2 0x64C JUMP JUMPDEST SWAP3 SWAP2 POP POP JUMP JUMPDEST PUSH1 0x0 DUP1 PUSH1 0x40 DUP4 DUP6 SUB SLT ISZERO PUSH2 0x68F JUMPI PUSH2 0x68E PUSH2 0x5DA JUMP JUMPDEST JUMPDEST PUSH1 0x0 PUSH2 0x69D DUP6 DUP3 DUP7 ADD PUSH2 0x600 JUMP JUMPDEST SWAP3 POP POP PUSH1 0x20 PUSH2 0x6AE DUP6 DUP3 DUP7 ADD PUSH2 0x663 JUMP JUMPDEST SWAP2 POP POP SWAP3 POP SWAP3 SWAP1 POP JUMP JUMPDEST PUSH1 0x0 DUP1 REVERT JUMPDEST PUSH1 0x0 PUSH1 0x1F NOT PUSH1 0x1F DUP4 ADD AND SWAP1 POP SWAP2 SWAP1 POP JUMP JUMPDEST PUSH32 0x4E487B7100000000000000000000000000000000000000000000000000000000 PUSH1 0x0 MSTORE PUSH1 0x41 PUSH1 0x4 MSTORE PUSH1 0x24 PUSH1 0x0 REVERT JUMPDEST PUSH2 0x706 DUP3 PUSH2 0x6BD JUMP JUMPDEST DUP2 ADD DUP2 DUP2 LT PUSH8 0xFFFFFFFFFFFFFFFF DUP3 GT OR ISZERO PUSH2 0x725 JUMPI PUSH2 0x724 PUSH2 0x6CE JUMP JUMPDEST JUMPDEST DUP1 PUSH1 0x40 MSTORE POP POP POP JUMP JUMPDEST PUSH1 0x0 PUSH2 0x738 PUSH2 0x5D0 JUMP JUMPDEST SWAP1 POP PUSH2 0x744 DUP3 DUP3 PUSH2 0x6FD JUMP JUMPDEST SWAP2 SWAP1 POP JUMP JUMPDEST PUSH1 0x0 PUSH1 0xA0 DUP3 DUP5 SUB SLT ISZERO PUSH2 0x75F JUMPI PUSH2 0x75E PUSH2 0x6B8 JUMP JUMPDEST JUMPDEST PUSH2 0x769 PUSH1 0xA0 PUSH2 0x72E JUMP JUMPDEST SWAP1 POP PUSH1 0x0 PUSH2 0x779 DUP5 DUP3 DUP6 ADD PUSH2 0x663 JUMP JUMPDEST PUSH1 0x0 DUP4 ADD MSTORE POP PUSH1 0x20 PUSH2 0x78D DUP5 DUP3 DUP6 ADD PUSH2 0x663 JUMP JUMPDEST PUSH1 0x20 DUP4 ADD MSTORE POP PUSH1 0x40 PUSH2 0x7A1 DUP5 DUP3 DUP6 ADD PUSH2 0x663 JUMP JUMPDEST PUSH1 0x40 DUP4 ADD MSTORE POP PUSH1 0x60 PUSH2 0x7B5 DUP5 DUP3 DUP6 ADD PUSH2 0x663 JUMP JUMPDEST PUSH1 0x60 DUP4 ADD MSTORE POP PUSH1 0x80 PUSH2 0x7C9 DUP5 DUP3 DUP6 ADD PUSH2 0x663 JUMP JUMPDEST PUSH1 0x80 DUP4 ADD MSTORE POP SWAP3 SWAP2 POP POP JUMP JUMPDEST PUSH1 0x0 DUP1 PUSH1 0xC0 DUP4 DUP6 SUB SLT ISZERO PUSH2 0x7EC JUMPI PUSH2 0x7EB PUSH2 0x5DA JUMP JUMPDEST JUMPDEST PUSH1 0x0 PUSH2 0x7FA DUP6 DUP3 DUP7 ADD PUSH2 0x600 JUMP JUMPDEST SWAP3 POP POP PUSH1 0x20 PUSH2 0x80B DUP6 DUP3 DUP7 ADD PUSH2 0x749 JUMP JUMPDEST SWAP2 POP POP SWAP3 POP SWAP3 SWAP1 POP JUMP JUMPDEST PUSH1 0x0 DUP3 DUP3 MSTORE PUSH1 0x20 DUP3 ADD SWAP1 POP SWAP3 SWAP2 POP POP JUMP JUMPDEST PUSH32 0x4552523A20416C6C20706C616365732061726520726573657276656421000000 PUSH1 0x0 DUP3 ADD MSTORE POP JUMP JUMPDEST PUSH1 0x0 PUSH2 0x85C PUSH1 0x1D DUP4 PUSH2 0x815 JUMP JUMPDEST SWAP2 POP PUSH2 0x867 DUP3 PUSH2 0x826 JUMP JUMPDEST PUSH1 0x20 DUP3 ADD SWAP1 POP SWAP2 SWAP1 POP JUMP JUMPDEST PUSH1 0x0 PUSH1 0x20 DUP3 ADD SWAP1 POP DUP2 DUP2 SUB PUSH1 0x0 DUP4 ADD MSTORE PUSH2 0x88B DUP2 PUSH2 0x84F JUMP JUMPDEST SWAP1 POP SWAP2 SWAP1 POP JUMP JUMPDEST PUSH32 0x4E487B7100000000000000000000000000000000000000000000000000000000 PUSH1 0x0 MSTORE PUSH1 0x11 PUSH1 0x4 MSTORE PUSH1 0x24 PUSH1 0x0 REVERT JUMPDEST PUSH1 0x0 PUSH2 0x8CC DUP3 PUSH2 0x642 JUMP JUMPDEST SWAP2 POP PUSH2 0x8D7 DUP4 PUSH2 0x642 JUMP JUMPDEST SWAP3 POP DUP3 DUP3 ADD SWAP1 POP DUP1 DUP3 GT ISZERO PUSH2 0x8EF JUMPI PUSH2 0x8EE PUSH2 0x892 JUMP JUMPDEST JUMPDEST SWAP3 SWAP2 POP POP JUMP JUMPDEST PUSH32 0x4552523A20596F752068617665206E6F74206D61646520612072657365727661 PUSH1 0x0 DUP3 ADD MSTORE PUSH32 0x74696F6E20746F2073746F726520746869732046696C65210000000000000000 PUSH1 0x20 DUP3 ADD MSTORE POP JUMP JUMPDEST PUSH1 0x0 PUSH2 0x951 PUSH1 0x38 DUP4 PUSH2 0x815 JUMP JUMPDEST SWAP2 POP PUSH2 0x95C DUP3 PUSH2 0x8F5 JUMP JUMPDEST PUSH1 0x40 DUP3 ADD SWAP1 POP SWAP2 SWAP1 POP JUMP JUMPDEST PUSH1 0x0 PUSH1 0x20 DUP3 ADD SWAP1 POP DUP2 DUP2 SUB PUSH1 0x0 DUP4 ADD MSTORE PUSH2 0x980 DUP2 PUSH2 0x944 JUMP JUMPDEST SWAP1 POP SWAP2 SWAP1 POP JUMP JUMPDEST PUSH32 0x4552523A2054686973206465616C49642068617320616C726561647920626565 PUSH1 0x0 DUP3 ADD MSTORE PUSH32 0x6E20636C61696D65642100000000000000000000000000000000000000000000 PUSH1 0x20 DUP3 ADD MSTORE POP JUMP JUMPDEST PUSH1 0x0 PUSH2 0x9E3 PUSH1 0x2A DUP4 PUSH2 0x815 JUMP JUMPDEST SWAP2 POP PUSH2 0x9EE DUP3 PUSH2 0x987 JUMP JUMPDEST PUSH1 0x40 DUP3 ADD SWAP1 POP SWAP2 SWAP1 POP JUMP JUMPDEST PUSH1 0x0 PUSH1 0x20 DUP3 ADD SWAP1 POP DUP2 DUP2 SUB PUSH1 0x0 DUP4 ADD MSTORE PUSH2 0xA12 DUP2 PUSH2 0x9D6 JUMP JUMPDEST SWAP1 POP SWAP2 SWAP1 POP JUMP JUMPDEST PUSH32 0x4552523A20596F7520616C7265616479206D61646520656E6F75676820636C61 PUSH1 0x0 DUP3 ADD MSTORE PUSH32 0x696D73202D207761697420666F7220746865206E657874205465726D00000000 PUSH1 0x20 DUP3 ADD MSTORE POP JUMP JUMPDEST PUSH1 0x0 PUSH2 0xA75 PUSH1 0x3C DUP4 PUSH2 0x815 JUMP JUMPDEST SWAP2 POP PUSH2 0xA80 DUP3 PUSH2 0xA19 JUMP JUMPDEST PUSH1 0x40 DUP3 ADD SWAP1 POP SWAP2 SWAP1 POP JUMP JUMPDEST PUSH1 0x0 PUSH1 0x20 DUP3 ADD SWAP1 POP DUP2 DUP2 SUB PUSH1 0x0 DUP4 ADD MSTORE PUSH2 0xAA4 DUP2 PUSH2 0xA68 JUMP JUMPDEST SWAP1 POP SWAP2 SWAP1 POP JUMP JUMPDEST PUSH1 0x0 PUSH20 0xFFFFFFFFFFFFFFFFFFFFFFFFFFFFFFFFFFFFFFFF DUP3 AND SWAP1 POP SWAP2 SWAP1 POP JUMP JUMPDEST PUSH1 0x0 PUSH2 0xAD6 DUP3 PUSH2 0xAAB JUMP JUMPDEST SWAP1 POP SWAP2 SWAP1 POP JUMP JUMPDEST PUSH2 0xAE6 DUP2 PUSH2 0xACB JUMP JUMPDEST DUP3 MSTORE POP POP JUMP JUMPDEST PUSH1 0x0 PUSH1 0x20 DUP3 ADD SWAP1 POP PUSH2 0xB01 PUSH1 0x0 DUP4 ADD DUP5 PUSH2 0xADD JUMP JUMPDEST SWAP3 SWAP2 POP POP JUMP JUMPDEST PUSH1 0x0 PUSH2 0xB12 DUP3 PUSH2 0x642 JUMP JUMPDEST SWAP2 POP PUSH2 0xB1D DUP4 PUSH2 0x642 JUMP JUMPDEST SWAP3 POP DUP3 DUP3 SUB SWAP1 POP DUP2 DUP2 GT ISZERO PUSH2 0xB35 JUMPI PUSH2 0xB34 PUSH2 0x892 JUMP JUMPDEST JUMPDEST SWAP3 SWAP2 POP POP JUMP JUMPDEST PUSH32 0x4E487B7100000000000000000000000000000000000000000000000000000000 PUSH1 0x0 MSTORE PUSH1 0x12 PUSH1 0x4 MSTORE PUSH1 0x24 PUSH1 0x0 REVERT JUMPDEST PUSH1 0x0 PUSH2 0xB75 DUP3 PUSH2 0x642 JUMP JUMPDEST SWAP2 POP PUSH2 0xB80 DUP4 PUSH2 0x642 JUMP JUMPDEST SWAP3 POP DUP3 PUSH2 0xB90 JUMPI PUSH2 0xB8F PUSH2 0xB3B JUMP JUMPDEST JUMPDEST DUP3 DUP3 DIV SWAP1 POP SWAP3 SWAP2 POP POP JUMP INVALID LOG2 PUSH5 0x6970667358 0x22 SLT KECCAK256 0xC8 KECCAK256 SWAP8 SWAP5 0xBC SDIV DUP14 ORIGIN 0xE7 0xD6 0xCC 0xC8 PUSH28 0x9347EC1040D466152F31CCD680DDFF8FC42AC164736F6C6343000811 STOP CALLER "},"gasEstimates":{"creation":{"codeDepositCost":"605000","executionCost":"infinite","totalCost":"infinite"},"external":{"claim(bytes32,uint256)":"infinite","proposePerpetualDeal(bytes32,(uint256,uint256,uint256,uint256,uint256))":"infinite","reserve(bytes32)":"infinite"},"internal":{"_activeTermNumber(bytes32)":"infinite","_remainingNumberOfTerms(bytes32)":"infinite","_totalNumberOfTerms(bytes32)":"infinite"}},"methodIdentifiers":{"claim(bytes32,uint256)":"63f44968","proposePerpetualDeal(bytes32,(uint256,uint256,uint256,uint256,uint256))":"d6c77109","reserve(bytes32)":"432ced04"}},"storageLayout":{"storage":[{"astId":719,"contract":"contracts/filesaver/FileSaver.sol:FileSaver","label":"sFIL_Address","offset":0,"slot":"0","type":"t_address_payable"},{"astId":735,"contract":"contracts/filesaver/FileSaver.sol:FileSaver","label":"CID_to_PerpertualDeal","offset":0,"slot":"1","type":"t_mapping(t_bytes32,t_struct(PerpetualDeal)730_storage)"},{"astId":741,"contract":"contracts/filesaver/FileSaver.sol:FileSaver","label":"CID_to_Provider_to_HasReserved","offset":0,"slot":"2","type":"t_mapping(t_bytes32,t_mapping(t_address,t_bool))"},{"astId":747,"contract":"contracts/filesaver/FileSaver.sol:FileSaver","label":"CID_to_Provider_to_NumberOfClaims","offset":0,"slot":"3","type":"t_mapping(t_bytes32,t_mapping(t_address,t_uint256))"},{"astId":751,"contract":"contracts/filesaver/FileSaver.sol:FileSaver","label":"DealId_to_HasBeenUsed","offset":0,"slot":"4","type":"t_mapping(t_uint256,t_bool)"}],"types":{"t_address":{"encoding":"inplace","label":"address","numberOfBytes":"20"},"t_address_payable":{"encoding":"inplace","label":"address payable","numberOfBytes":"20"},"t_bool":{"encoding":"inplace","label":"bool","numberOfBytes":"1"},"t_bytes32":{"encoding":"inplace","label":"bytes32","numberOfBytes":"32"},"t_mapping(t_address,t_bool)":{"encoding":"mapping","key":"t_address","label":"mapping(address => bool)","numberOfBytes":"32","value":"t_bool"},"t_mapping(t_address,t_uint256)":{"encoding":"mapping","key":"t_address","label":"mapping(address => uint256)","numberOfBytes":"32","value":"t_uint256"},"t_mapping(t_bytes32,t_mapping(t_address,t_bool))":{"encoding":"mapping","key":"t_bytes32","label":"mapping(bytes32 => mapping(address => bool))","numberOfBytes":"32","value":"t_mapping(t_address,t_bool)"},"t_mapping(t_bytes32,t_mapping(t_address,t_uint256))":{"encoding":"mapping","key":"t_bytes32","label":"mapping(bytes32 => mapping(address => uint256))","numberOfBytes":"32","value":"t_mapping(t_address,t_uint256)"},"t_mapping(t_bytes32,t_struct(PerpetualDeal)730_storage)":{"encoding":"mapping","key":"t_bytes32","label":"mapping(bytes32 => struct FileSaver.PerpetualDeal)","numberOfBytes":"32","value":"t_struct(PerpetualDeal)730_storage"},"t_mapping(t_uint256,t_bool)":{"encoding":"mapping","key":"t_uint256","label":"mapping(uint256 => bool)","numberOfBytes":"32","value":"t_bool"},"t_struct(PerpetualDeal)730_storage":{"encoding":"inplace","label":"struct FileSaver.PerpetualDeal","members":[{"astId":721,"contract":"contracts/filesaver/FileSaver.sol:FileSaver","label":"replicas","offset":0,"slot":"0","type":"t_uint256"},{"astId":723,"contract":"contracts/filesaver/FileSaver.sol:FileSaver","label":"activeReplicas","offset":0,"slot":"1","type":"t_uint256"},{"astId":725,"contract":"contracts/filesaver/FileSaver.sol:FileSaver","label":"createdAt","offset":0,"slot":"2","type":"t_uint256"},{"astId":727,"contract":"contracts/filesaver/FileSaver.sol:FileSaver","label":"duration","offset":0,"slot":"3","type":"t_uint256"},{"astId":729,"contract":"contracts/filesaver/FileSaver.sol:FileSaver","label":"amount","offset":0,"slot":"4","type":"t_uint256"}],"numberOfBytes":"160"},"t_uint256":{"encoding":"inplace","label":"uint256","numberOfBytes":"32"}}},"userdoc":{"kind":"user","methods":{},"version":1}}}}