{"contracts/filesaver/FileSaver.sol":{"FileSaver":{"abi":[{"inputs":[{"internalType":"bytes32","name":"_cid","type":"bytes32"},{"internalType":"uint256","name":"_dealId","type":"uint256"}],"name":"claim","outputs":[],"stateMutability":"nonpayable","type":"function"},{"inputs":[{"internalType":"bytes32","name":"_cid","type":"bytes32"},{"components":[{"internalType":"uint256","name":"replicas","type":"uint256"},{"internalType":"uint256","name":"activeReplicas","type":"uint256"},{"internalType":"uint256","name":"createdAt","type":"uint256"},{"internalType":"uint256","name":"duration","type":"uint256"},{"internalType":"uint256","name":"amount","type":"uint256"}],"internalType":"struct FileSaver.PerpetualDeal","name":"_pd","type":"tuple"}],"name":"proposePerpetualDeal","outputs":[],"stateMutability":"payable","type":"function"},{"inputs":[{"internalType":"bytes32","name":"_cid","type":"bytes32"}],"name":"reserve","outputs":[],"stateMutability":"payable","type":"function"}],"devdoc":{"kind":"dev","methods":{},"version":1},"evm":{"bytecode":{"linkReferences":{},"object":"608060405234801561001057600080fd5b50610adf806100206000396000f3fe6080604052600436106100345760003560e01c8063432ced041461003957806363f4496814610055578063d6c771091461007e575b600080fd5b610053600480360381019061004e919061057f565b61009a565b005b34801561006157600080fd5b5061007c600480360381019061007791906105e2565b61019e565b005b6100986004803603810190610093919061073f565b6103e1565b005b600080828152602001908152602001600020600001546000808381526020019081526020016000206001015410610106576040517f08c379a00000000000000000000000000000000000000000000000000000000081526004016100fd906107dc565b60405180910390fd5b600180600083815260200190815260200160002060003373ffffffffffffffffffffffffffffffffffffffff1673ffffffffffffffffffffffffffffffffffffffff16815260200190815260200160002060006101000a81548160ff02191690831515021790555060016000808381526020019081526020016000206001016000828254610194919061082b565b9250508190555050565b600115156001600084815260200190815260200160002060003373ffffffffffffffffffffffffffffffffffffffff1673ffffffffffffffffffffffffffffffffffffffff16815260200190815260200160002060009054906101000a900460ff16151514610242576040517f08c379a0000000000000000000000000000000000000000000000000000000008152600401610239906108d1565b60405180910390fd5b600015156003600083815260200190815260200160002060009054906101000a900460ff161515146102a9576040517f08c379a00000000000000000000000000000000000000000000000000000000081526004016102a090610963565b60405180910390fd5b6002600083815260200190815260200160002060003373ffffffffffffffffffffffffffffffffffffffff1673ffffffffffffffffffffffffffffffffffffffff168152602001908152602001600020546103038361047c565b11610343576040517f08c379a000000000000000000000000000000000000000000000000000000000815260040161033a906109f5565b60405180910390fd5b600033905060016002600085815260200190815260200160002060008373ffffffffffffffffffffffffffffffffffffffff1673ffffffffffffffffffffffffffffffffffffffff16815260200190815260200160002060008282546103a9919061082b565b9250508190555060016003600084815260200190815260200160002060006101000a81548160ff021916908315150217905550505050565b806000808481526020019081526020016000206000820151816000015560208201518160010155604082015181600201556060820151816003015560808201518160040155905050600080600084815260200190815260200160002060010181905550436000808481526020019081526020016000206002018190555034600080848152602001908152602001600020600401819055505050565b6000610487826104a1565b6104908361050f565b61049a9190610a15565b9050919050565b60008060008084815260200190815260200160002060030154600080858152602001908152602001600020600201546104da919061082b565b9050438110156104ee57600091505061050a565b600a43826104fc9190610a15565b6105069190610a78565b9150505b919050565b6000600a600080848152602001908152602001600020600301546105339190610a78565b9050919050565b6000604051905090565b600080fd5b6000819050919050565b61055c81610549565b811461056757600080fd5b50565b60008135905061057981610553565b92915050565b60006020828403121561059557610594610544565b5b60006105a38482850161056a565b91505092915050565b6000819050919050565b6105bf816105ac565b81146105ca57600080fd5b50565b6000813590506105dc816105b6565b92915050565b600080604083850312156105f9576105f8610544565b5b60006106078582860161056a565b9250506020610618858286016105cd565b9150509250929050565b600080fd5b6000601f19601f8301169050919050565b7f4e487b7100000000000000000000000000000000000000000000000000000000600052604160045260246000fd5b61067082610627565b810181811067ffffffffffffffff8211171561068f5761068e610638565b5b80604052505050565b60006106a261053a565b90506106ae8282610667565b919050565b600060a082840312156106c9576106c8610622565b5b6106d360a0610698565b905060006106e3848285016105cd565b60008301525060206106f7848285016105cd565b602083015250604061070b848285016105cd565b604083015250606061071f848285016105cd565b6060830152506080610733848285016105cd565b60808301525092915050565b60008060c0838503121561075657610755610544565b5b60006107648582860161056a565b9250506020610775858286016106b3565b9150509250929050565b600082825260208201905092915050565b7f4552523a20416c6c20706c616365732061726520726573657276656421000000600082015250565b60006107c6601d8361077f565b91506107d182610790565b602082019050919050565b600060208201905081810360008301526107f5816107b9565b9050919050565b7f4e487b7100000000000000000000000000000000000000000000000000000000600052601160045260246000fd5b6000610836826105ac565b9150610841836105ac565b9250828201905080821115610859576108586107fc565b5b92915050565b7f4552523a20596f752068617665206e6f74206d6164652061207265736572766160008201527f74696f6e20746f2073746f726520746869732046696c65210000000000000000602082015250565b60006108bb60388361077f565b91506108c68261085f565b604082019050919050565b600060208201905081810360008301526108ea816108ae565b9050919050565b7f4552523a2054686973206465616c49642068617320616c72656164792062656560008201527f6e20636c61696d65642100000000000000000000000000000000000000000000602082015250565b600061094d602a8361077f565b9150610958826108f1565b604082019050919050565b6000602082019050818103600083015261097c81610940565b9050919050565b7f4552523a20596f7520616c7265616479206d61646520656e6f75676820636c6160008201527f696d73202d207761697420666f7220746865206e657874205465726d00000000602082015250565b60006109df603c8361077f565b91506109ea82610983565b604082019050919050565b60006020820190508181036000830152610a0e816109d2565b9050919050565b6000610a20826105ac565b9150610a2b836105ac565b9250828203905081811115610a4357610a426107fc565b5b92915050565b7f4e487b7100000000000000000000000000000000000000000000000000000000600052601260045260246000fd5b6000610a83826105ac565b9150610a8e836105ac565b925082610a9e57610a9d610a49565b5b82820490509291505056fea264697066735822122054fcf2a6517d7f6d1e1e5ec0d7567326d1162eeff7c8bface223e2ea3199651664736f6c63430008110033","opcodes":"PUSH1 0x80 PUSH1 0x40 MSTORE CALLVALUE DUP1 ISZERO PUSH2 0x10 JUMPI PUSH1 0x0 DUP1 REVERT JUMPDEST POP PUSH2 0xADF DUP1 PUSH2 0x20 PUSH1 0x0 CODECOPY PUSH1 0x0 RETURN INVALID PUSH1 0x80 PUSH1 0x40 MSTORE PUSH1 0x4 CALLDATASIZE LT PUSH2 0x34 JUMPI PUSH1 0x0 CALLDATALOAD PUSH1 0xE0 SHR DUP1 PUSH4 0x432CED04 EQ PUSH2 0x39 JUMPI DUP1 PUSH4 0x63F44968 EQ PUSH2 0x55 JUMPI DUP1 PUSH4 0xD6C77109 EQ PUSH2 0x7E JUMPI JUMPDEST PUSH1 0x0 DUP1 REVERT JUMPDEST PUSH2 0x53 PUSH1 0x4 DUP1 CALLDATASIZE SUB DUP2 ADD SWAP1 PUSH2 0x4E SWAP2 SWAP1 PUSH2 0x57F JUMP JUMPDEST PUSH2 0x9A JUMP JUMPDEST STOP JUMPDEST CALLVALUE DUP1 ISZERO PUSH2 0x61 JUMPI PUSH1 0x0 DUP1 REVERT JUMPDEST POP PUSH2 0x7C PUSH1 0x4 DUP1 CALLDATASIZE SUB DUP2 ADD SWAP1 PUSH2 0x77 SWAP2 SWAP1 PUSH2 0x5E2 JUMP JUMPDEST PUSH2 0x19E JUMP JUMPDEST STOP JUMPDEST PUSH2 0x98 PUSH1 0x4 DUP1 CALLDATASIZE SUB DUP2 ADD SWAP1 PUSH2 0x93 SWAP2 SWAP1 PUSH2 0x73F JUMP JUMPDEST PUSH2 0x3E1 JUMP JUMPDEST STOP JUMPDEST PUSH1 0x0 DUP1 DUP3 DUP2 MSTORE PUSH1 0x20 ADD SWAP1 DUP2 MSTORE PUSH1 0x20 ADD PUSH1 0x0 KECCAK256 PUSH1 0x0 ADD SLOAD PUSH1 0x0 DUP1 DUP4 DUP2 MSTORE PUSH1 0x20 ADD SWAP1 DUP2 MSTORE PUSH1 0x20 ADD PUSH1 0x0 KECCAK256 PUSH1 0x1 ADD SLOAD LT PUSH2 0x106 JUMPI PUSH1 0x40 MLOAD PUSH32 0x8C379A000000000000000000000000000000000000000000000000000000000 DUP2 MSTORE PUSH1 0x4 ADD PUSH2 0xFD SWAP1 PUSH2 0x7DC JUMP JUMPDEST PUSH1 0x40 MLOAD DUP1 SWAP2 SUB SWAP1 REVERT JUMPDEST PUSH1 0x1 DUP1 PUSH1 0x0 DUP4 DUP2 MSTORE PUSH1 0x20 ADD SWAP1 DUP2 MSTORE PUSH1 0x20 ADD PUSH1 0x0 KECCAK256 PUSH1 0x0 CALLER PUSH20 0xFFFFFFFFFFFFFFFFFFFFFFFFFFFFFFFFFFFFFFFF AND PUSH20 0xFFFFFFFFFFFFFFFFFFFFFFFFFFFFFFFFFFFFFFFF AND DUP2 MSTORE PUSH1 0x20 ADD SWAP1 DUP2 MSTORE PUSH1 0x20 ADD PUSH1 0x0 KECCAK256 PUSH1 0x0 PUSH2 0x100 EXP DUP2 SLOAD DUP2 PUSH1 0xFF MUL NOT AND SWAP1 DUP4 ISZERO ISZERO MUL OR SWAP1 SSTORE POP PUSH1 0x1 PUSH1 0x0 DUP1 DUP4 DUP2 MSTORE PUSH1 0x20 ADD SWAP1 DUP2 MSTORE PUSH1 0x20 ADD PUSH1 0x0 KECCAK256 PUSH1 0x1 ADD PUSH1 0x0 DUP3 DUP3 SLOAD PUSH2 0x194 SWAP2 SWAP1 PUSH2 0x82B JUMP JUMPDEST SWAP3 POP POP DUP2 SWAP1 SSTORE POP POP JUMP JUMPDEST PUSH1 0x1 ISZERO ISZERO PUSH1 0x1 PUSH1 0x0 DUP5 DUP2 MSTORE PUSH1 0x20 ADD SWAP1 DUP2 MSTORE PUSH1 0x20 ADD PUSH1 0x0 KECCAK256 PUSH1 0x0 CALLER PUSH20 0xFFFFFFFFFFFFFFFFFFFFFFFFFFFFFFFFFFFFFFFF AND PUSH20 0xFFFFFFFFFFFFFFFFFFFFFFFFFFFFFFFFFFFFFFFF AND DUP2 MSTORE PUSH1 0x20 ADD SWAP1 DUP2 MSTORE PUSH1 0x20 ADD PUSH1 0x0 KECCAK256 PUSH1 0x0 SWAP1 SLOAD SWAP1 PUSH2 0x100 EXP SWAP1 DIV PUSH1 0xFF AND ISZERO ISZERO EQ PUSH2 0x242 JUMPI PUSH1 0x40 MLOAD PUSH32 0x8C379A000000000000000000000000000000000000000000000000000000000 DUP2 MSTORE PUSH1 0x4 ADD PUSH2 0x239 SWAP1 PUSH2 0x8D1 JUMP JUMPDEST PUSH1 0x40 MLOAD DUP1 SWAP2 SUB SWAP1 REVERT JUMPDEST PUSH1 0x0 ISZERO ISZERO PUSH1 0x3 PUSH1 0x0 DUP4 DUP2 MSTORE PUSH1 0x20 ADD SWAP1 DUP2 MSTORE PUSH1 0x20 ADD PUSH1 0x0 KECCAK256 PUSH1 0x0 SWAP1 SLOAD SWAP1 PUSH2 0x100 EXP SWAP1 DIV PUSH1 0xFF AND ISZERO ISZERO EQ PUSH2 0x2A9 JUMPI PUSH1 0x40 MLOAD PUSH32 0x8C379A000000000000000000000000000000000000000000000000000000000 DUP2 MSTORE PUSH1 0x4 ADD PUSH2 0x2A0 SWAP1 PUSH2 0x963 JUMP JUMPDEST PUSH1 0x40 MLOAD DUP1 SWAP2 SUB SWAP1 REVERT JUMPDEST PUSH1 0x2 PUSH1 0x0 DUP4 DUP2 MSTORE PUSH1 0x20 ADD SWAP1 DUP2 MSTORE PUSH1 0x20 ADD PUSH1 0x0 KECCAK256 PUSH1 0x0 CALLER PUSH20 0xFFFFFFFFFFFFFFFFFFFFFFFFFFFFFFFFFFFFFFFF AND PUSH20 0xFFFFFFFFFFFFFFFFFFFFFFFFFFFFFFFFFFFFFFFF AND DUP2 MSTORE PUSH1 0x20 ADD SWAP1 DUP2 MSTORE PUSH1 0x20 ADD PUSH1 0x0 KECCAK256 SLOAD PUSH2 0x303 DUP4 PUSH2 0x47C JUMP JUMPDEST GT PUSH2 0x343 JUMPI PUSH1 0x40 MLOAD PUSH32 0x8C379A000000000000000000000000000000000000000000000000000000000 DUP2 MSTORE PUSH1 0x4 ADD PUSH2 0x33A SWAP1 PUSH2 0x9F5 JUMP JUMPDEST PUSH1 0x40 MLOAD DUP1 SWAP2 SUB SWAP1 REVERT JUMPDEST PUSH1 0x0 CALLER SWAP1 POP PUSH1 0x1 PUSH1 0x2 PUSH1 0x0 DUP6 DUP2 MSTORE PUSH1 0x20 ADD SWAP1 DUP2 MSTORE PUSH1 0x20 ADD PUSH1 0x0 KECCAK256 PUSH1 0x0 DUP4 PUSH20 0xFFFFFFFFFFFFFFFFFFFFFFFFFFFFFFFFFFFFFFFF AND PUSH20 0xFFFFFFFFFFFFFFFFFFFFFFFFFFFFFFFFFFFFFFFF AND DUP2 MSTORE PUSH1 0x20 ADD SWAP1 DUP2 MSTORE PUSH1 0x20 ADD PUSH1 0x0 KECCAK256 PUSH1 0x0 DUP3 DUP3 SLOAD PUSH2 0x3A9 SWAP2 SWAP1 PUSH2 0x82B JUMP JUMPDEST SWAP3 POP POP DUP2 SWAP1 SSTORE POP PUSH1 0x1 PUSH1 0x3 PUSH1 0x0 DUP5 DUP2 MSTORE PUSH1 0x20 ADD SWAP1 DUP2 MSTORE PUSH1 0x20 ADD PUSH1 0x0 KECCAK256 PUSH1 0x0 PUSH2 0x100 EXP DUP2 SLOAD DUP2 PUSH1 0xFF MUL NOT AND SWAP1 DUP4 ISZERO ISZERO MUL OR SWAP1 SSTORE POP POP POP POP JUMP JUMPDEST DUP1 PUSH1 0x0 DUP1 DUP5 DUP2 MSTORE PUSH1 0x20 ADD SWAP1 DUP2 MSTORE PUSH1 0x20 ADD PUSH1 0x0 KECCAK256 PUSH1 0x0 DUP3 ADD MLOAD DUP2 PUSH1 0x0 ADD SSTORE PUSH1 0x20 DUP3 ADD MLOAD DUP2 PUSH1 0x1 ADD SSTORE PUSH1 0x40 DUP3 ADD MLOAD DUP2 PUSH1 0x2 ADD SSTORE PUSH1 0x60 DUP3 ADD MLOAD DUP2 PUSH1 0x3 ADD SSTORE PUSH1 0x80 DUP3 ADD MLOAD DUP2 PUSH1 0x4 ADD SSTORE SWAP1 POP POP PUSH1 0x0 DUP1 PUSH1 0x0 DUP5 DUP2 MSTORE PUSH1 0x20 ADD SWAP1 DUP2 MSTORE PUSH1 0x20 ADD PUSH1 0x0 KECCAK256 PUSH1 0x1 ADD DUP2 SWAP1 SSTORE POP NUMBER PUSH1 0x0 DUP1 DUP5 DUP2 MSTORE PUSH1 0x20 ADD SWAP1 DUP2 MSTORE PUSH1 0x20 ADD PUSH1 0x0 KECCAK256 PUSH1 0x2 ADD DUP2 SWAP1 SSTORE POP CALLVALUE PUSH1 0x0 DUP1 DUP5 DUP2 MSTORE PUSH1 0x20 ADD SWAP1 DUP2 MSTORE PUSH1 0x20 ADD PUSH1 0x0 KECCAK256 PUSH1 0x4 ADD DUP2 SWAP1 SSTORE POP POP POP JUMP JUMPDEST PUSH1 0x0 PUSH2 0x487 DUP3 PUSH2 0x4A1 JUMP JUMPDEST PUSH2 0x490 DUP4 PUSH2 0x50F JUMP JUMPDEST PUSH2 0x49A SWAP2 SWAP1 PUSH2 0xA15 JUMP JUMPDEST SWAP1 POP SWAP2 SWAP1 POP JUMP JUMPDEST PUSH1 0x0 DUP1 PUSH1 0x0 DUP1 DUP5 DUP2 MSTORE PUSH1 0x20 ADD SWAP1 DUP2 MSTORE PUSH1 0x20 ADD PUSH1 0x0 KECCAK256 PUSH1 0x3 ADD SLOAD PUSH1 0x0 DUP1 DUP6 DUP2 MSTORE PUSH1 0x20 ADD SWAP1 DUP2 MSTORE PUSH1 0x20 ADD PUSH1 0x0 KECCAK256 PUSH1 0x2 ADD SLOAD PUSH2 0x4DA SWAP2 SWAP1 PUSH2 0x82B JUMP JUMPDEST SWAP1 POP NUMBER DUP2 LT ISZERO PUSH2 0x4EE JUMPI PUSH1 0x0 SWAP2 POP POP PUSH2 0x50A JUMP JUMPDEST PUSH1 0xA NUMBER DUP3 PUSH2 0x4FC SWAP2 SWAP1 PUSH2 0xA15 JUMP JUMPDEST PUSH2 0x506 SWAP2 SWAP1 PUSH2 0xA78 JUMP JUMPDEST SWAP2 POP POP JUMPDEST SWAP2 SWAP1 POP JUMP JUMPDEST PUSH1 0x0 PUSH1 0xA PUSH1 0x0 DUP1 DUP5 DUP2 MSTORE PUSH1 0x20 ADD SWAP1 DUP2 MSTORE PUSH1 0x20 ADD PUSH1 0x0 KECCAK256 PUSH1 0x3 ADD SLOAD PUSH2 0x533 SWAP2 SWAP1 PUSH2 0xA78 JUMP JUMPDEST SWAP1 POP SWAP2 SWAP1 POP JUMP JUMPDEST PUSH1 0x0 PUSH1 0x40 MLOAD SWAP1 POP SWAP1 JUMP JUMPDEST PUSH1 0x0 DUP1 REVERT JUMPDEST PUSH1 0x0 DUP2 SWAP1 POP SWAP2 SWAP1 POP JUMP JUMPDEST PUSH2 0x55C DUP2 PUSH2 0x549 JUMP JUMPDEST DUP2 EQ PUSH2 0x567 JUMPI PUSH1 0x0 DUP1 REVERT JUMPDEST POP JUMP JUMPDEST PUSH1 0x0 DUP2 CALLDATALOAD SWAP1 POP PUSH2 0x579 DUP2 PUSH2 0x553 JUMP JUMPDEST SWAP3 SWAP2 POP POP JUMP JUMPDEST PUSH1 0x0 PUSH1 0x20 DUP3 DUP5 SUB SLT ISZERO PUSH2 0x595 JUMPI PUSH2 0x594 PUSH2 0x544 JUMP JUMPDEST JUMPDEST PUSH1 0x0 PUSH2 0x5A3 DUP5 DUP3 DUP6 ADD PUSH2 0x56A JUMP JUMPDEST SWAP2 POP POP SWAP3 SWAP2 POP POP JUMP JUMPDEST PUSH1 0x0 DUP2 SWAP1 POP SWAP2 SWAP1 POP JUMP JUMPDEST PUSH2 0x5BF DUP2 PUSH2 0x5AC JUMP JUMPDEST DUP2 EQ PUSH2 0x5CA JUMPI PUSH1 0x0 DUP1 REVERT JUMPDEST POP JUMP JUMPDEST PUSH1 0x0 DUP2 CALLDATALOAD SWAP1 POP PUSH2 0x5DC DUP2 PUSH2 0x5B6 JUMP JUMPDEST SWAP3 SWAP2 POP POP JUMP JUMPDEST PUSH1 0x0 DUP1 PUSH1 0x40 DUP4 DUP6 SUB SLT ISZERO PUSH2 0x5F9 JUMPI PUSH2 0x5F8 PUSH2 0x544 JUMP JUMPDEST JUMPDEST PUSH1 0x0 PUSH2 0x607 DUP6 DUP3 DUP7 ADD PUSH2 0x56A JUMP JUMPDEST SWAP3 POP POP PUSH1 0x20 PUSH2 0x618 DUP6 DUP3 DUP7 ADD PUSH2 0x5CD JUMP JUMPDEST SWAP2 POP POP SWAP3 POP SWAP3 SWAP1 POP JUMP JUMPDEST PUSH1 0x0 DUP1 REVERT JUMPDEST PUSH1 0x0 PUSH1 0x1F NOT PUSH1 0x1F DUP4 ADD AND SWAP1 POP SWAP2 SWAP1 POP JUMP JUMPDEST PUSH32 0x4E487B7100000000000000000000000000000000000000000000000000000000 PUSH1 0x0 MSTORE PUSH1 0x41 PUSH1 0x4 MSTORE PUSH1 0x24 PUSH1 0x0 REVERT JUMPDEST PUSH2 0x670 DUP3 PUSH2 0x627 JUMP JUMPDEST DUP2 ADD DUP2 DUP2 LT PUSH8 0xFFFFFFFFFFFFFFFF DUP3 GT OR ISZERO PUSH2 0x68F JUMPI PUSH2 0x68E PUSH2 0x638 JUMP JUMPDEST JUMPDEST DUP1 PUSH1 0x40 MSTORE POP POP POP JUMP JUMPDEST PUSH1 0x0 PUSH2 0x6A2 PUSH2 0x53A JUMP JUMPDEST SWAP1 POP PUSH2 0x6AE DUP3 DUP3 PUSH2 0x667 JUMP JUMPDEST SWAP2 SWAP1 POP JUMP JUMPDEST PUSH1 0x0 PUSH1 0xA0 DUP3 DUP5 SUB SLT ISZERO PUSH2 0x6C9 JUMPI PUSH2 0x6C8 PUSH2 0x622 JUMP JUMPDEST JUMPDEST PUSH2 0x6D3 PUSH1 0xA0 PUSH2 0x698 JUMP JUMPDEST SWAP1 POP PUSH1 0x0 PUSH2 0x6E3 DUP5 DUP3 DUP6 ADD PUSH2 0x5CD JUMP JUMPDEST PUSH1 0x0 DUP4 ADD MSTORE POP PUSH1 0x20 PUSH2 0x6F7 DUP5 DUP3 DUP6 ADD PUSH2 0x5CD JUMP JUMPDEST PUSH1 0x20 DUP4 ADD MSTORE POP PUSH1 0x40 PUSH2 0x70B DUP5 DUP3 DUP6 ADD PUSH2 0x5CD JUMP JUMPDEST PUSH1 0x40 DUP4 ADD MSTORE POP PUSH1 0x60 PUSH2 0x71F DUP5 DUP3 DUP6 ADD PUSH2 0x5CD JUMP JUMPDEST PUSH1 0x60 DUP4 ADD MSTORE POP PUSH1 0x80 PUSH2 0x733 DUP5 DUP3 DUP6 ADD PUSH2 0x5CD JUMP JUMPDEST PUSH1 0x80 DUP4 ADD MSTORE POP SWAP3 SWAP2 POP POP JUMP JUMPDEST PUSH1 0x0 DUP1 PUSH1 0xC0 DUP4 DUP6 SUB SLT ISZERO PUSH2 0x756 JUMPI PUSH2 0x755 PUSH2 0x544 JUMP JUMPDEST JUMPDEST PUSH1 0x0 PUSH2 0x764 DUP6 DUP3 DUP7 ADD PUSH2 0x56A JUMP JUMPDEST SWAP3 POP POP PUSH1 0x20 PUSH2 0x775 DUP6 DUP3 DUP7 ADD PUSH2 0x6B3 JUMP JUMPDEST SWAP2 POP POP SWAP3 POP SWAP3 SWAP1 POP JUMP JUMPDEST PUSH1 0x0 DUP3 DUP3 MSTORE PUSH1 0x20 DUP3 ADD SWAP1 POP SWAP3 SWAP2 POP POP JUMP JUMPDEST PUSH32 0x4552523A20416C6C20706C616365732061726520726573657276656421000000 PUSH1 0x0 DUP3 ADD MSTORE POP JUMP JUMPDEST PUSH1 0x0 PUSH2 0x7C6 PUSH1 0x1D DUP4 PUSH2 0x77F JUMP JUMPDEST SWAP2 POP PUSH2 0x7D1 DUP3 PUSH2 0x790 JUMP JUMPDEST PUSH1 0x20 DUP3 ADD SWAP1 POP SWAP2 SWAP1 POP JUMP JUMPDEST PUSH1 0x0 PUSH1 0x20 DUP3 ADD SWAP1 POP DUP2 DUP2 SUB PUSH1 0x0 DUP4 ADD MSTORE PUSH2 0x7F5 DUP2 PUSH2 0x7B9 JUMP JUMPDEST SWAP1 POP SWAP2 SWAP1 POP JUMP JUMPDEST PUSH32 0x4E487B7100000000000000000000000000000000000000000000000000000000 PUSH1 0x0 MSTORE PUSH1 0x11 PUSH1 0x4 MSTORE PUSH1 0x24 PUSH1 0x0 REVERT JUMPDEST PUSH1 0x0 PUSH2 0x836 DUP3 PUSH2 0x5AC JUMP JUMPDEST SWAP2 POP PUSH2 0x841 DUP4 PUSH2 0x5AC JUMP JUMPDEST SWAP3 POP DUP3 DUP3 ADD SWAP1 POP DUP1 DUP3 GT ISZERO PUSH2 0x859 JUMPI PUSH2 0x858 PUSH2 0x7FC JUMP JUMPDEST JUMPDEST SWAP3 SWAP2 POP POP JUMP JUMPDEST PUSH32 0x4552523A20596F752068617665206E6F74206D61646520612072657365727661 PUSH1 0x0 DUP3 ADD MSTORE PUSH32 0x74696F6E20746F2073746F726520746869732046696C65210000000000000000 PUSH1 0x20 DUP3 ADD MSTORE POP JUMP JUMPDEST PUSH1 0x0 PUSH2 0x8BB PUSH1 0x38 DUP4 PUSH2 0x77F JUMP JUMPDEST SWAP2 POP PUSH2 0x8C6 DUP3 PUSH2 0x85F JUMP JUMPDEST PUSH1 0x40 DUP3 ADD SWAP1 POP SWAP2 SWAP1 POP JUMP JUMPDEST PUSH1 0x0 PUSH1 0x20 DUP3 ADD SWAP1 POP DUP2 DUP2 SUB PUSH1 0x0 DUP4 ADD MSTORE PUSH2 0x8EA DUP2 PUSH2 0x8AE JUMP JUMPDEST SWAP1 POP SWAP2 SWAP1 POP JUMP JUMPDEST PUSH32 0x4552523A2054686973206465616C49642068617320616C726561647920626565 PUSH1 0x0 DUP3 ADD MSTORE PUSH32 0x6E20636C61696D65642100000000000000000000000000000000000000000000 PUSH1 0x20 DUP3 ADD MSTORE POP JUMP JUMPDEST PUSH1 0x0 PUSH2 0x94D PUSH1 0x2A DUP4 PUSH2 0x77F JUMP JUMPDEST SWAP2 POP PUSH2 0x958 DUP3 PUSH2 0x8F1 JUMP JUMPDEST PUSH1 0x40 DUP3 ADD SWAP1 POP SWAP2 SWAP1 POP JUMP JUMPDEST PUSH1 0x0 PUSH1 0x20 DUP3 ADD SWAP1 POP DUP2 DUP2 SUB PUSH1 0x0 DUP4 ADD MSTORE PUSH2 0x97C DUP2 PUSH2 0x940 JUMP JUMPDEST SWAP1 POP SWAP2 SWAP1 POP JUMP JUMPDEST PUSH32 0x4552523A20596F7520616C7265616479206D61646520656E6F75676820636C61 PUSH1 0x0 DUP3 ADD MSTORE PUSH32 0x696D73202D207761697420666F7220746865206E657874205465726D00000000 PUSH1 0x20 DUP3 ADD MSTORE POP JUMP JUMPDEST PUSH1 0x0 PUSH2 0x9DF PUSH1 0x3C DUP4 PUSH2 0x77F JUMP JUMPDEST SWAP2 POP PUSH2 0x9EA DUP3 PUSH2 0x983 JUMP JUMPDEST PUSH1 0x40 DUP3 ADD SWAP1 POP SWAP2 SWAP1 POP JUMP JUMPDEST PUSH1 0x0 PUSH1 0x20 DUP3 ADD SWAP1 POP DUP2 DUP2 SUB PUSH1 0x0 DUP4 ADD MSTORE PUSH2 0xA0E DUP2 PUSH2 0x9D2 JUMP JUMPDEST SWAP1 POP SWAP2 SWAP1 POP JUMP JUMPDEST PUSH1 0x0 PUSH2 0xA20 DUP3 PUSH2 0x5AC JUMP JUMPDEST SWAP2 POP PUSH2 0xA2B DUP4 PUSH2 0x5AC JUMP JUMPDEST SWAP3 POP DUP3 DUP3 SUB SWAP1 POP DUP2 DUP2 GT ISZERO PUSH2 0xA43 JUMPI PUSH2 0xA42 PUSH2 0x7FC JUMP JUMPDEST JUMPDEST SWAP3 SWAP2 POP POP JUMP JUMPDEST PUSH32 0x4E487B7100000000000000000000000000000000000000000000000000000000 PUSH1 0x0 MSTORE PUSH1 0x12 PUSH1 0x4 MSTORE PUSH1 0x24 PUSH1 0x0 REVERT JUMPDEST PUSH1 0x0 PUSH2 0xA83 DUP3 PUSH2 0x5AC JUMP JUMPDEST SWAP2 POP PUSH2 0xA8E DUP4 PUSH2 0x5AC JUMP JUMPDEST SWAP3 POP DUP3 PUSH2 0xA9E JUMPI PUSH2 0xA9D PUSH2 0xA49 JUMP JUMPDEST JUMPDEST DUP3 DUP3 DIV SWAP1 POP SWAP3 SWAP2 POP POP JUMP INVALID LOG2 PUSH5 0x6970667358 0x22 SLT KECCAK256 SLOAD 0xFC CALLCODE 0xA6 MLOAD PUSH30 0x7F6D1E1E5EC0D7567326D1162EEFF7C8BFACE223E2EA3199651664736F6C PUSH4 0x43000811 STOP CALLER "},"gasEstimates":{"creation":{"codeDepositCost":"556600","executionCost":"587","totalCost":"557187"},"external":{"claim(bytes32,uint256)":"infinite","proposePerpetualDeal(bytes32,(uint256,uint256,uint256,uint256,uint256))":"infinite","reserve(bytes32)":"infinite"},"internal":{"_activeTermNumber(bytes32)":"infinite","_remainingNumberOfTerms(bytes32)":"infinite","_totalNumberOfTerms(bytes32)":"infinite"}},"methodIdentifiers":{"claim(bytes32,uint256)":"63f44968","proposePerpetualDeal(bytes32,(uint256,uint256,uint256,uint256,uint256))":"d6c77109","reserve(bytes32)":"432ced04"}},"storageLayout":{"storage":[{"astId":845,"contract":"contracts/filesaver/FileSaver.sol:FileSaver","label":"CID_to_PerpertualDeal","offset":0,"slot":"0","type":"t_mapping(t_bytes32,t_struct(PerpetualDeal)840_storage)"},{"astId":851,"contract":"contracts/filesaver/FileSaver.sol:FileSaver","label":"CID_to_Provider_to_HasReserved","offset":0,"slot":"1","type":"t_mapping(t_bytes32,t_mapping(t_address,t_bool))"},{"astId":857,"contract":"contracts/filesaver/FileSaver.sol:FileSaver","label":"CID_to_Provider_to_NumberOfClaims","offset":0,"slot":"2","type":"t_mapping(t_bytes32,t_mapping(t_address,t_uint256))"},{"astId":861,"contract":"contracts/filesaver/FileSaver.sol:FileSaver","label":"DealId_to_HasBeenUsed","offset":0,"slot":"3","type":"t_mapping(t_uint256,t_bool)"}],"types":{"t_address":{"encoding":"inplace","label":"address","numberOfBytes":"20"},"t_bool":{"encoding":"inplace","label":"bool","numberOfBytes":"1"},"t_bytes32":{"encoding":"inplace","label":"bytes32","numberOfBytes":"32"},"t_mapping(t_address,t_bool)":{"encoding":"mapping","key":"t_address","label":"mapping(address => bool)","numberOfBytes":"32","value":"t_bool"},"t_mapping(t_address,t_uint256)":{"encoding":"mapping","key":"t_address","label":"mapping(address => uint256)","numberOfBytes":"32","value":"t_uint256"},"t_mapping(t_bytes32,t_mapping(t_address,t_bool))":{"encoding":"mapping","key":"t_bytes32","label":"mapping(bytes32 => mapping(address => bool))","numberOfBytes":"32","value":"t_mapping(t_address,t_bool)"},"t_mapping(t_bytes32,t_mapping(t_address,t_uint256))":{"encoding":"mapping","key":"t_bytes32","label":"mapping(bytes32 => mapping(address => uint256))","numberOfBytes":"32","value":"t_mapping(t_address,t_uint256)"},"t_mapping(t_bytes32,t_struct(PerpetualDeal)840_storage)":{"encoding":"mapping","key":"t_bytes32","label":"mapping(bytes32 => struct FileSaver.PerpetualDeal)","numberOfBytes":"32","value":"t_struct(PerpetualDeal)840_storage"},"t_mapping(t_uint256,t_bool)":{"encoding":"mapping","key":"t_uint256","label":"mapping(uint256 => bool)","numberOfBytes":"32","value":"t_bool"},"t_struct(PerpetualDeal)840_storage":{"encoding":"inplace","label":"struct FileSaver.PerpetualDeal","members":[{"astId":831,"contract":"contracts/filesaver/FileSaver.sol:FileSaver","label":"replicas","offset":0,"slot":"0","type":"t_uint256"},{"astId":833,"contract":"contracts/filesaver/FileSaver.sol:FileSaver","label":"activeReplicas","offset":0,"slot":"1","type":"t_uint256"},{"astId":835,"contract":"contracts/filesaver/FileSaver.sol:FileSaver","label":"createdAt","offset":0,"slot":"2","type":"t_uint256"},{"astId":837,"contract":"contracts/filesaver/FileSaver.sol:FileSaver","label":"duration","offset":0,"slot":"3","type":"t_uint256"},{"astId":839,"contract":"contracts/filesaver/FileSaver.sol:FileSaver","label":"amount","offset":0,"slot":"4","type":"t_uint256"}],"numberOfBytes":"160"},"t_uint256":{"encoding":"inplace","label":"uint256","numberOfBytes":"32"}}},"userdoc":{"kind":"user","methods":{},"version":1}}}}